{
  "_format": "hh-sol-artifact-1",
  "contractName": "ConfidentialToken",
  "sourceName": "contracts/ConfidentialToken.sol",
  "abi": [
    {
      "inputs": [
        {
          "internalType": "string",
          "name": "_name",
          "type": "string"
        },
        {
          "internalType": "string",
          "name": "_symbol",
          "type": "string"
        },
        {
          "internalType": "uint8",
          "name": "_decimals",
          "type": "uint8"
        },
        {
          "internalType": "address",
          "name": "admin",
          "type": "address"
        }
      ],
      "stateMutability": "nonpayable",
      "type": "constructor"
    },
    {
      "inputs": [],
      "name": "AccessControlBadConfirmation",
      "type": "error"
    },
    {
      "inputs": [
        {
          "internalType": "address",
          "name": "account",
          "type": "address"
        },
        {
          "internalType": "bytes32",
          "name": "neededRole",
          "type": "bytes32"
        }
      ],
      "name": "AccessControlUnauthorizedAccount",
      "type": "error"
    },
    {
      "inputs": [],
      "name": "ExceedsUint64",
      "type": "error"
    },
    {
      "inputs": [],
      "name": "HandleNotAllowed",
      "type": "error"
    },
    {
      "inputs": [
        {
          "internalType": "uint8",
          "name": "got",
          "type": "uint8"
        },
        {
          "internalType": "uint8",
          "name": "expected",
          "type": "uint8"
        }
      ],
      "name": "InvalidEncryptedInput",
      "type": "error"
    },
    {
      "inputs": [
        {
          "internalType": "int32",
          "name": "value",
          "type": "int32"
        }
      ],
      "name": "SecurityZoneOutOfBounds",
      "type": "error"
    },
    {
      "inputs": [],
      "name": "SelfTransfer",
      "type": "error"
    },
    {
      "inputs": [],
      "name": "ZeroAddress",
      "type": "error"
    },
    {
      "inputs": [],
      "name": "ZeroAmount",
      "type": "error"
    },
    {
      "anonymous": false,
      "inputs": [
        {
          "indexed": true,
          "internalType": "address",
          "name": "from",
          "type": "address"
        },
        {
          "indexed": false,
          "internalType": "bytes32",
          "name": "okHandle",
          "type": "bytes32"
        }
      ],
      "name": "Burned",
      "type": "event"
    },
    {
      "anonymous": false,
      "inputs": [
        {
          "indexed": true,
          "internalType": "address",
          "name": "to",
          "type": "address"
        }
      ],
      "name": "Minted",
      "type": "event"
    },
    {
      "anonymous": false,
      "inputs": [
        {
          "indexed": true,
          "internalType": "bytes32",
          "name": "role",
          "type": "bytes32"
        },
        {
          "indexed": true,
          "internalType": "bytes32",
          "name": "previousAdminRole",
          "type": "bytes32"
        },
        {
          "indexed": true,
          "internalType": "bytes32",
          "name": "newAdminRole",
          "type": "bytes32"
        }
      ],
      "name": "RoleAdminChanged",
      "type": "event"
    },
    {
      "anonymous": false,
      "inputs": [
        {
          "indexed": true,
          "internalType": "bytes32",
          "name": "role",
          "type": "bytes32"
        },
        {
          "indexed": true,
          "internalType": "address",
          "name": "account",
          "type": "address"
        },
        {
          "indexed": true,
          "internalType": "address",
          "name": "sender",
          "type": "address"
        }
      ],
      "name": "RoleGranted",
      "type": "event"
    },
    {
      "anonymous": false,
      "inputs": [
        {
          "indexed": true,
          "internalType": "bytes32",
          "name": "role",
          "type": "bytes32"
        },
        {
          "indexed": true,
          "internalType": "address",
          "name": "account",
          "type": "address"
        },
        {
          "indexed": true,
          "internalType": "address",
          "name": "sender",
          "type": "address"
        }
      ],
      "name": "RoleRevoked",
      "type": "event"
    },
    {
      "anonymous": false,
      "inputs": [
        {
          "indexed": true,
          "internalType": "address",
          "name": "from",
          "type": "address"
        },
        {
          "indexed": true,
          "internalType": "address",
          "name": "to",
          "type": "address"
        }
      ],
      "name": "TransferPrivate",
      "type": "event"
    },
    {
      "inputs": [],
      "name": "BURNER_ROLE",
      "outputs": [
        {
          "internalType": "bytes32",
          "name": "",
          "type": "bytes32"
        }
      ],
      "stateMutability": "view",
      "type": "function"
    },
    {
      "inputs": [],
      "name": "DEFAULT_ADMIN_ROLE",
      "outputs": [
        {
          "internalType": "bytes32",
          "name": "",
          "type": "bytes32"
        }
      ],
      "stateMutability": "view",
      "type": "function"
    },
    {
      "inputs": [],
      "name": "MINTER_ROLE",
      "outputs": [
        {
          "internalType": "bytes32",
          "name": "",
          "type": "bytes32"
        }
      ],
      "stateMutability": "view",
      "type": "function"
    },
    {
      "inputs": [],
      "name": "VAULT_ROLE",
      "outputs": [
        {
          "internalType": "bytes32",
          "name": "",
          "type": "bytes32"
        }
      ],
      "stateMutability": "view",
      "type": "function"
    },
    {
      "inputs": [
        {
          "internalType": "address",
          "name": "",
          "type": "address"
        }
      ],
      "name": "balanceOf",
      "outputs": [
        {
          "internalType": "euint64",
          "name": "",
          "type": "bytes32"
        }
      ],
      "stateMutability": "view",
      "type": "function"
    },
    {
      "inputs": [
        {
          "internalType": "address",
          "name": "from",
          "type": "address"
        },
        {
          "internalType": "euint64",
          "name": "amount",
          "type": "bytes32"
        }
      ],
      "name": "burnFromHandle",
      "outputs": [
        {
          "internalType": "ebool",
          "name": "success",
          "type": "bytes32"
        }
      ],
      "stateMutability": "nonpayable",
      "type": "function"
    },
    {
      "inputs": [],
      "name": "decimals",
      "outputs": [
        {
          "internalType": "uint8",
          "name": "",
          "type": "uint8"
        }
      ],
      "stateMutability": "view",
      "type": "function"
    },
    {
      "inputs": [
        {
          "internalType": "bytes32",
          "name": "role",
          "type": "bytes32"
        }
      ],
      "name": "getRoleAdmin",
      "outputs": [
        {
          "internalType": "bytes32",
          "name": "",
          "type": "bytes32"
        }
      ],
      "stateMutability": "view",
      "type": "function"
    },
    {
      "inputs": [
        {
          "internalType": "bytes32",
          "name": "role",
          "type": "bytes32"
        },
        {
          "internalType": "address",
          "name": "account",
          "type": "address"
        }
      ],
      "name": "grantRole",
      "outputs": [],
      "stateMutability": "nonpayable",
      "type": "function"
    },
    {
      "inputs": [
        {
          "internalType": "bytes32",
          "name": "role",
          "type": "bytes32"
        },
        {
          "internalType": "address",
          "name": "account",
          "type": "address"
        }
      ],
      "name": "hasRole",
      "outputs": [
        {
          "internalType": "bool",
          "name": "",
          "type": "bool"
        }
      ],
      "stateMutability": "view",
      "type": "function"
    },
    {
      "inputs": [
        {
          "internalType": "address",
          "name": "to",
          "type": "address"
        },
        {
          "internalType": "uint256",
          "name": "amount",
          "type": "uint256"
        }
      ],
      "name": "mintTo",
      "outputs": [],
      "stateMutability": "nonpayable",
      "type": "function"
    },
    {
      "inputs": [],
      "name": "name",
      "outputs": [
        {
          "internalType": "string",
          "name": "",
          "type": "string"
        }
      ],
      "stateMutability": "view",
      "type": "function"
    },
    {
      "inputs": [
        {
          "internalType": "bytes32",
          "name": "role",
          "type": "bytes32"
        },
        {
          "internalType": "address",
          "name": "callerConfirmation",
          "type": "address"
        }
      ],
      "name": "renounceRole",
      "outputs": [],
      "stateMutability": "nonpayable",
      "type": "function"
    },
    {
      "inputs": [
        {
          "internalType": "bytes32",
          "name": "role",
          "type": "bytes32"
        },
        {
          "internalType": "address",
          "name": "account",
          "type": "address"
        }
      ],
      "name": "revokeRole",
      "outputs": [],
      "stateMutability": "nonpayable",
      "type": "function"
    },
    {
      "inputs": [
        {
          "internalType": "bytes4",
          "name": "interfaceId",
          "type": "bytes4"
        }
      ],
      "name": "supportsInterface",
      "outputs": [
        {
          "internalType": "bool",
          "name": "",
          "type": "bool"
        }
      ],
      "stateMutability": "view",
      "type": "function"
    },
    {
      "inputs": [],
      "name": "symbol",
      "outputs": [
        {
          "internalType": "string",
          "name": "",
          "type": "string"
        }
      ],
      "stateMutability": "view",
      "type": "function"
    },
    {
      "inputs": [
        {
          "internalType": "address",
          "name": "to",
          "type": "address"
        },
        {
          "components": [
            {
              "internalType": "uint256",
              "name": "ctHash",
              "type": "uint256"
            },
            {
              "internalType": "uint8",
              "name": "securityZone",
              "type": "uint8"
            },
            {
              "internalType": "uint8",
              "name": "utype",
              "type": "uint8"
            },
            {
              "internalType": "bytes",
              "name": "signature",
              "type": "bytes"
            }
          ],
          "internalType": "struct InEuint64",
          "name": "encryptedAmount",
          "type": "tuple"
        }
      ],
      "name": "transfer",
      "outputs": [
        {
          "internalType": "ebool",
          "name": "",
          "type": "bytes32"
        }
      ],
      "stateMutability": "nonpayable",
      "type": "function"
    },
    {
      "inputs": [
        {
          "internalType": "address",
          "name": "from",
          "type": "address"
        },
        {
          "internalType": "address",
          "name": "to",
          "type": "address"
        },
        {
          "internalType": "euint64",
          "name": "amount",
          "type": "bytes32"
        }
      ],
      "name": "transferFromHandle",
      "outputs": [
        {
          "internalType": "ebool",
          "name": "",
          "type": "bytes32"
        }
      ],
      "stateMutability": "nonpayable",
      "type": "function"
    }
  ],
  "bytecode": "0x608060405234801561000f575f5ffd5b50604051611a98380380611a9883398101604081905261002e916101b1565b600161003a85826102cf565b50600261004784826102cf565b506003805460ff191660ff84161790556100615f8261006b565b5050505050610389565b5f828152602081815260408083206001600160a01b038516845290915281205460ff1661010b575f838152602081815260408083206001600160a01b03861684529091529020805460ff191660011790556100c33390565b6001600160a01b0316826001600160a01b0316847f2f8788117e7eff1d82e926ec794901d17c78024a50270940304540a733656f0d60405160405180910390a450600161010e565b505f5b92915050565b634e487b7160e01b5f52604160045260245ffd5b5f82601f830112610137575f5ffd5b81516001600160401b0381111561015057610150610114565b604051601f8201601f19908116603f011681016001600160401b038111828210171561017e5761017e610114565b604052818152838201602001851015610195575f5ffd5b8160208501602083015e5f918101602001919091529392505050565b5f5f5f5f608085870312156101c4575f5ffd5b84516001600160401b038111156101d9575f5ffd5b6101e587828801610128565b602087015190955090506001600160401b03811115610202575f5ffd5b61020e87828801610128565b935050604085015160ff81168114610224575f5ffd5b60608601519092506001600160a01b0381168114610240575f5ffd5b939692955090935050565b600181811c9082168061025f57607f821691505b60208210810361027d57634e487b7160e01b5f52602260045260245ffd5b50919050565b601f8211156102ca57805f5260205f20601f840160051c810160208510156102a85750805b601f840160051c820191505b818110156102c7575f81556001016102b4565b50505b505050565b81516001600160401b038111156102e8576102e8610114565b6102fc816102f6845461024b565b84610283565b6020601f82116001811461032e575f83156103175750848201515b5f19600385901b1c1916600184901b1784556102c7565b5f84815260208120601f198516915b8281101561035d578785015182556020948501946001909201910161033d565b508482101561037a57868401515f19600387901b60f8161c191681555b50505050600190811b01905550565b611702806103965f395ff3fe608060405234801561000f575f5ffd5b5060043610610111575f3560e01c8063787999ee1161009e57806398c4f1ac1161006e57806398c4f1ac14610263578063a217fddf1461028a578063a28b755214610291578063d5391393146102a4578063d547741f146102cb575f5ffd5b8063787999ee1461022257806385cca98e1461023557806391d148541461024857806395d89b411461025b575f5ffd5b80632f2ff15d116100e45780632f2ff15d146101a9578063313ce567146101be57806336568abe146101dd578063449a52f8146101f057806370a0823114610203575f5ffd5b806301ffc9a71461011557806306fdde031461013d578063248a9ca314610152578063282c51f314610182575b5f5ffd5b610128610123366004611244565b6102de565b60405190151581526020015b60405180910390f35b610145610314565b6040516101349190611299565b6101746101603660046112ab565b5f9081526020819052604090206001015490565b604051908152602001610134565b6101747f3c11d16cbaffd01df69ce1c404f6340ee057498f5f00246190ea54220576a84881565b6101bc6101b73660046112dd565b6103a0565b005b6003546101cb9060ff1681565b60405160ff9091168152602001610134565b6101bc6101eb3660046112dd565b6103ca565b6101bc6101fe366004611307565b610402565b61017461021136600461132f565b60046020525f908152604090205481565b610174610230366004611348565b61053f565b610174610243366004611382565b61067e565b6101286102563660046112dd565b6106f8565b610145610720565b6101747f31e0210044b4f6757ce6aa31f9c6e8d4896d24a755014887391a926c5224d95981565b6101745f81565b61017461029f366004611307565b61072d565b6101747f9f2df0fed2c77648de5860a4cc508cd0818c85b8b8a1ab4ceeef8d981c8956a681565b6101bc6102d93660046112dd565b61089b565b5f6001600160e01b03198216637965db0b60e01b148061030e57506301ffc9a760e01b6001600160e01b03198316145b92915050565b60018054610321906113d3565b80601f016020809104026020016040519081016040528092919081815260200182805461034d906113d3565b80156103985780601f1061036f57610100808354040283529160200191610398565b820191905f5260205f20905b81548152906001019060200180831161037b57829003601f168201915b505050505081565b5f828152602081905260409020600101546103ba816108bf565b6103c483836108cc565b50505050565b6001600160a01b03811633146103f35760405163334bd91960e11b815260040160405180910390fd5b6103fd828261095b565b505050565b7f9f2df0fed2c77648de5860a4cc508cd0818c85b8b8a1ab4ceeef8d981c8956a661042c816108bf565b6001600160a01b0383166104535760405163d92e233d60e01b815260040160405180910390fd5b815f0361047357604051631f2a200560e01b815260040160405180910390fd5b67ffffffffffffffff82111561049c576040516301ff324160e21b815260040160405180910390fd5b5f6104b08367ffffffffffffffff166109c4565b6001600160a01b0385165f90815260046020526040812054919250906104d690836109cf565b6001600160a01b0386165f90815260046020526040902081905590506104fc8186610a17565b61050581610a8a565b6040516001600160a01b038616907f90ddedd5a25821bba11fbb98de02ec1f75c1be90ae147d6450ce873e7b78b5d8905f90a25050505050565b5f6001600160a01b038416158061055d57506001600160a01b038316155b1561057b5760405163d92e233d60e01b815260040160405180910390fd5b826001600160a01b0316846001600160a01b0316036105ad57604051634d9ecd9160e01b815260040160405180910390fd5b6001600160a01b0384163314806105e957506105e97f31e0210044b4f6757ce6aa31f9c6e8d4896d24a755014887391a926c5224d959336106f8565b6106445760405162461bcd60e51b815260206004820152602160248201527f436f6e666964656e7469616c546f6b656e3a206e6f7420617574686f72697a656044820152601960fa1b60648201526084015b60405180910390fd5b61064e8230610af3565b61066a5760405162461bcd60e51b815260040161063b9061140b565b61067684848433610b77565b949350505050565b5f6001600160a01b0383166106a65760405163d92e233d60e01b815260040160405180910390fd5b336001600160a01b038416036106cf57604051634d9ecd9160e01b815260040160405180910390fd5b5f6106e16106dc846114ce565b610cc4565b90506106ec81610a8a565b61067633858333610b77565b5f918252602082815260408084206001600160a01b0393909316845291905290205460ff1690565b60028054610321906113d3565b5f7f3c11d16cbaffd01df69ce1c404f6340ee057498f5f00246190ea54220576a848610758816108bf565b6001600160a01b03841661077f5760405163d92e233d60e01b815260040160405180910390fd5b6107898330610af3565b6107a55760405162461bcd60e51b815260040161063b9061140b565b6001600160a01b0384165f908152600460205260409020546107c79084610d2a565b91505f6107dd83856107d85f6109c4565b610d6b565b6001600160a01b0386165f90815260046020526040812054919250906108039083610dc4565b6001600160a01b0387165f90815260046020526040902081905590506108298187610a17565b61083281610a8a565b61083c8487610a17565b6108468433610a17565b61084f84610a8a565b856001600160a01b03167fea31794b9467bf91dbdc7ea3f191471886f4a521b3fec1fea9412d817caef7c78560405161088a91815260200190565b60405180910390a250505092915050565b5f828152602081905260409020600101546108b5816108bf565b6103c4838361095b565b6108c98133610e05565b50565b5f6108d783836106f8565b610954575f838152602081815260408083206001600160a01b03861684529091529020805460ff1916600117905561090c3390565b6001600160a01b0316826001600160a01b0316847f2f8788117e7eff1d82e926ec794901d17c78024a50270940304540a733656f0d60405160405180910390a450600161030e565b505f61030e565b5f61096683836106f8565b15610954575f838152602081815260408083206001600160a01b0386168085529252808320805460ff1916905551339286917ff6391f5c32d9c69d2a47ea670b442974b53935d1edc7fd64eb21e047a839171b9190a450600161030e565b5f61030e825f610e42565b5f6109d983610e50565b6109e9576109e65f6109c4565b92505b6109f282610e50565b610a02576109ff5f6109c4565b91505b610a10600584846008610e59565b9392505050565b604051631974142760e21b8152600481018390526001600160a01b038216602482015273ea30c4b8b44078bbf8a6ef5b9f1ec1626c7848d9906365d0509c906044015f604051808303815f87803b158015610a70575f5ffd5b505af1158015610a82573d5f5f3e3d5ffd5b505050505050565b604051631974142760e21b81526004810182905230602482015273ea30c4b8b44078bbf8a6ef5b9f1ec1626c7848d9906365d0509c906044015f604051808303815f87803b158015610ada575f5ffd5b505af1158015610aec573d5f5f3e3d5ffd5b5050505050565b604051632fd514cd60e11b8152600481018390526001600160a01b03821660248201525f9073ea30c4b8b44078bbf8a6ef5b9f1ec1626c7848d990635faa299a906044016020604051808303815f875af1158015610b53573d5f5f3e3d5ffd5b505050506040513d601f19601f82011682018060405250810190610a109190611597565b6001600160a01b0384165f90815260046020526040812054610b999084610d2a565b90505f610baa82856107d85f6109c4565b6001600160a01b0387165f9081526004602052604081205491925090610bd09083610dc4565b6001600160a01b0387165f9081526004602052604081205491925090610bf690846109cf565b6001600160a01b03808a165f90815260046020526040808220869055918a168152208190559050610c278289610a17565b610c318188610a17565b610c3a82610a8a565b610c4381610a8a565b610c4d8489610a17565b610c5684610a8a565b876001600160a01b0316856001600160a01b031614610c7957610c798486610a17565b866001600160a01b0316886001600160a01b03167ff0afc884661663100bdac30bc0d03cbcf19852f62ee70ef463cf6d11e1b8ec5060405160405180910390a3505050949350505050565b5f610cd482604001516005610efa565b60408051608080820183525f808352602080840182905283850191909152606092830183905283519182018452855182528086015160ff1690820152600592810192909252808401519082015261030e90610f2d565b5f610d3483610e50565b610d4457610d415f6109c4565b92505b610d4d82610e50565b610d5d57610d5a5f6109c4565b91505b610a10600584846012610e59565b5f610d7584610e50565b610d8557610d825f610fa8565b93505b610d8e83610e50565b610d9e57610d9b5f6109c4565b92505b610da782610e50565b610db757610db45f6109c4565b91505b6106766005858585610fb3565b5f610dce83610e50565b610dde57610ddb5f6109c4565b92505b610de782610e50565b610df757610df45f6109c4565b91505b610a10600584846007610e59565b610e0f82826106f8565b610e3e5760405163e2517d3f60e01b81526001600160a01b03821660048201526024810183905260440161063b565b5050565b5f5f61067684600585610fdc565b5f81151561030e565b5f73ea30c4b8b44078bbf8a6ef5b9f1ec1626c7848d9631888debd8684610e808888611081565b604080515f815260208101918290526001600160e01b031960e087901b16909152610eb193929190602481016115f0565b6020604051808303815f875af1158015610ecd573d5f5f3e3d5ffd5b505050506040513d601f19601f82011682018060405250810190610ef1919061164a565b95945050505050565b8060ff168260ff1614610e3e576040516367cf307160e01b815260ff80841660048301528216602482015260440161063b565b6040516313fce3b160e11b81525f9073ea30c4b8b44078bbf8a6ef5b9f1ec1626c7848d9906327f9c76290610f689085903390600401611661565b6020604051808303815f875af1158015610f84573d5f5f3e3d5ffd5b505050506040513d601f19601f8201168201806040525081019061030e919061164a565b5f61030e825f6110ee565b5f73ea30c4b8b44078bbf8a6ef5b9f1ec1626c7848d9631888debd866004610e80888888611106565b604080515f8082526020820190925273ea30c4b8b44078bbf8a6ef5b9f1ec1626c7848d990631888debd908590601a90611022898960ff1661101d8a611197565b6111cc565b6040518563ffffffff1660e01b815260040161104194939291906115f0565b6020604051808303815f875af115801561105d573d5f5f3e3d5ffd5b505050506040513d601f19601f82011682018060405250810190610676919061164a565b60408051600280825260608083018452925f929190602083019080368337019050509050835f1c815f815181106110ba576110ba6116b8565b602002602001018181525050825f1c816001815181106110dc576110dc6116b8565b60209081029190910101529392505050565b5f8083156110fa575060015b5f610ef1825f86610fdc565b604080516003808252608082019092526060915f9190602082018480368337019050509050845f1c815f81518110611140576111406116b8565b602002602001018181525050835f1c81600181518110611162576111626116b8565b602002602001018181525050825f1c81600281518110611184576111846116b8565b6020908102919091010152949350505050565b5f5f8260030b12156111c2576040516311ead17f60e31b8152600383900b600482015260240161063b565b5063ffffffff1690565b604080516003808252608082019092526060915f919060208201848036833701905050905084815f81518110611204576112046116b8565b6020026020010181815250508381600181518110611224576112246116b8565b6020026020010181815250508281600281518110611184576111846116b8565b5f60208284031215611254575f5ffd5b81356001600160e01b031981168114610a10575f5ffd5b5f81518084528060208401602086015e5f602082860101526020601f19601f83011685010191505092915050565b602081525f610a10602083018461126b565b5f602082840312156112bb575f5ffd5b5035919050565b80356001600160a01b03811681146112d8575f5ffd5b919050565b5f5f604083850312156112ee575f5ffd5b823591506112fe602084016112c2565b90509250929050565b5f5f60408385031215611318575f5ffd5b611321836112c2565b946020939093013593505050565b5f6020828403121561133f575f5ffd5b610a10826112c2565b5f5f5f6060848603121561135a575f5ffd5b611363846112c2565b9250611371602085016112c2565b929592945050506040919091013590565b5f5f60408385031215611393575f5ffd5b61139c836112c2565b9150602083013567ffffffffffffffff8111156113b7575f5ffd5b8301608081860312156113c8575f5ffd5b809150509250929050565b600181811c908216806113e757607f821691505b60208210810361140557634e487b7160e01b5f52602260045260245ffd5b50919050565b60208082526025908201527f436f6e666964656e7469616c546f6b656e3a2068616e646c65206e6f7420616c6040820152641b1bddd95960da1b606082015260800190565b634e487b7160e01b5f52604160045260245ffd5b6040516080810167ffffffffffffffff8111828210171561148757611487611450565b60405290565b604051601f8201601f1916810167ffffffffffffffff811182821017156114b6576114b6611450565b604052919050565b803560ff811681146112d8575f5ffd5b5f608082360312156114de575f5ffd5b6114e6611464565b823581526114f6602084016114be565b6020820152611507604084016114be565b6040820152606083013567ffffffffffffffff811115611525575f5ffd5b830136601f820112611535575f5ffd5b803567ffffffffffffffff81111561154f5761154f611450565b611562601f8201601f191660200161148d565b818152366020838501011115611576575f5ffd5b816020840160208301375f9181016020019190915260608301525092915050565b5f602082840312156115a7575f5ffd5b81518015158114610a10575f5ffd5b5f8151808452602084019350602083015f5b828110156115e65781518652602095860195909101906001016115c8565b5093949350505050565b60ff851681525f6020851061161357634e487b7160e01b5f52602160045260245ffd5b8460208301526080604083015261162d60808301856115b6565b828103606084015261163f81856115b6565b979650505050505050565b5f6020828403121561165a575f5ffd5b5051919050565b604081528251604082015260ff602084015116606082015260ff60408401511660808201525f6060840151608060a08401526116a060c084018261126b565b91505060018060a01b03831660208301529392505050565b634e487b7160e01b5f52603260045260245ffdfea2646970667358221220ff83b09f37e6853bebc4dd9c22b69e7a62597da3ef7cfe94d42e15b49deedb4264736f6c634300081c0033",
  "linkReferences": {},
  "deployedLinkReferences": {}
}