{
  "_format": "hh-sol-artifact-1",
  "contractName": "PayrollVault",
  "sourceName": "contracts/PayrollVault.sol",
  "abi": [
    {
      "inputs": [
        {
          "internalType": "address",
          "name": "admin",
          "type": "address"
        }
      ],
      "stateMutability": "nonpayable",
      "type": "constructor"
    },
    {
      "inputs": [],
      "name": "AccessControlBadConfirmation",
      "type": "error"
    },
    {
      "inputs": [
        {
          "internalType": "address",
          "name": "account",
          "type": "address"
        },
        {
          "internalType": "bytes32",
          "name": "neededRole",
          "type": "bytes32"
        }
      ],
      "name": "AccessControlUnauthorizedAccount",
      "type": "error"
    },
    {
      "inputs": [],
      "name": "AllocationMissing",
      "type": "error"
    },
    {
      "inputs": [],
      "name": "AlreadyClaimed",
      "type": "error"
    },
    {
      "inputs": [],
      "name": "BadStatus",
      "type": "error"
    },
    {
      "inputs": [],
      "name": "ClaimNotRequested",
      "type": "error"
    },
    {
      "inputs": [],
      "name": "DeadlinePassed",
      "type": "error"
    },
    {
      "inputs": [],
      "name": "DuplicateEmployee",
      "type": "error"
    },
    {
      "inputs": [],
      "name": "InvalidCount",
      "type": "error"
    },
    {
      "inputs": [],
      "name": "InvalidDeadline",
      "type": "error"
    },
    {
      "inputs": [],
      "name": "InvalidDecryptProof",
      "type": "error"
    },
    {
      "inputs": [
        {
          "internalType": "uint8",
          "name": "got",
          "type": "uint8"
        },
        {
          "internalType": "uint8",
          "name": "expected",
          "type": "uint8"
        }
      ],
      "name": "InvalidEncryptedInput",
      "type": "error"
    },
    {
      "inputs": [],
      "name": "LengthMismatch",
      "type": "error"
    },
    {
      "inputs": [],
      "name": "NoPendingClaim",
      "type": "error"
    },
    {
      "inputs": [],
      "name": "NotEmployer",
      "type": "error"
    },
    {
      "inputs": [],
      "name": "NotEnoughBalance",
      "type": "error"
    },
    {
      "inputs": [],
      "name": "NotFunded",
      "type": "error"
    },
    {
      "inputs": [],
      "name": "NotYetDeadline",
      "type": "error"
    },
    {
      "inputs": [],
      "name": "NothingToWithdraw",
      "type": "error"
    },
    {
      "inputs": [],
      "name": "ReentrancyGuardReentrantCall",
      "type": "error"
    },
    {
      "inputs": [
        {
          "internalType": "int32",
          "name": "value",
          "type": "int32"
        }
      ],
      "name": "SecurityZoneOutOfBounds",
      "type": "error"
    },
    {
      "inputs": [],
      "name": "TokenNotApproved",
      "type": "error"
    },
    {
      "inputs": [],
      "name": "UnknownPayroll",
      "type": "error"
    },
    {
      "inputs": [],
      "name": "ZeroAddress",
      "type": "error"
    },
    {
      "anonymous": false,
      "inputs": [
        {
          "indexed": true,
          "internalType": "uint256",
          "name": "payrollId",
          "type": "uint256"
        }
      ],
      "name": "AllocationsFinalized",
      "type": "event"
    },
    {
      "anonymous": false,
      "inputs": [
        {
          "indexed": true,
          "internalType": "uint256",
          "name": "payrollId",
          "type": "uint256"
        },
        {
          "indexed": false,
          "internalType": "uint256",
          "name": "chunkCount",
          "type": "uint256"
        },
        {
          "indexed": false,
          "internalType": "uint16",
          "name": "totalUploaded",
          "type": "uint16"
        }
      ],
      "name": "AllocationsUploaded",
      "type": "event"
    },
    {
      "anonymous": false,
      "inputs": [
        {
          "indexed": true,
          "internalType": "uint256",
          "name": "payrollId",
          "type": "uint256"
        },
        {
          "indexed": true,
          "internalType": "address",
          "name": "employee",
          "type": "address"
        },
        {
          "indexed": false,
          "internalType": "bytes32",
          "name": "requestId",
          "type": "bytes32"
        }
      ],
      "name": "ClaimFinalized",
      "type": "event"
    },
    {
      "anonymous": false,
      "inputs": [
        {
          "indexed": true,
          "internalType": "uint256",
          "name": "payrollId",
          "type": "uint256"
        },
        {
          "indexed": true,
          "internalType": "address",
          "name": "employee",
          "type": "address"
        },
        {
          "indexed": false,
          "internalType": "bytes32",
          "name": "requestId",
          "type": "bytes32"
        }
      ],
      "name": "ClaimRequested",
      "type": "event"
    },
    {
      "anonymous": false,
      "inputs": [
        {
          "indexed": true,
          "internalType": "uint256",
          "name": "payrollId",
          "type": "uint256"
        },
        {
          "indexed": true,
          "internalType": "address",
          "name": "to",
          "type": "address"
        }
      ],
      "name": "LeftoversWithdrawn",
      "type": "event"
    },
    {
      "anonymous": false,
      "inputs": [
        {
          "indexed": true,
          "internalType": "uint256",
          "name": "payrollId",
          "type": "uint256"
        }
      ],
      "name": "PayrollActivated",
      "type": "event"
    },
    {
      "anonymous": false,
      "inputs": [
        {
          "indexed": true,
          "internalType": "uint256",
          "name": "payrollId",
          "type": "uint256"
        }
      ],
      "name": "PayrollCancelled",
      "type": "event"
    },
    {
      "anonymous": false,
      "inputs": [
        {
          "indexed": true,
          "internalType": "uint256",
          "name": "payrollId",
          "type": "uint256"
        }
      ],
      "name": "PayrollClosed",
      "type": "event"
    },
    {
      "anonymous": false,
      "inputs": [
        {
          "indexed": true,
          "internalType": "uint256",
          "name": "payrollId",
          "type": "uint256"
        },
        {
          "indexed": true,
          "internalType": "address",
          "name": "employer",
          "type": "address"
        },
        {
          "indexed": true,
          "internalType": "address",
          "name": "token",
          "type": "address"
        },
        {
          "indexed": false,
          "internalType": "uint64",
          "name": "deadline",
          "type": "uint64"
        },
        {
          "indexed": false,
          "internalType": "uint16",
          "name": "employeeCount",
          "type": "uint16"
        }
      ],
      "name": "PayrollCreated",
      "type": "event"
    },
    {
      "anonymous": false,
      "inputs": [
        {
          "indexed": true,
          "internalType": "uint256",
          "name": "payrollId",
          "type": "uint256"
        },
        {
          "indexed": true,
          "internalType": "address",
          "name": "employer",
          "type": "address"
        },
        {
          "indexed": false,
          "internalType": "bytes32",
          "name": "escrowHandle",
          "type": "bytes32"
        }
      ],
      "name": "PayrollFunded",
      "type": "event"
    },
    {
      "anonymous": false,
      "inputs": [
        {
          "indexed": true,
          "internalType": "uint256",
          "name": "payrollId",
          "type": "uint256"
        },
        {
          "indexed": true,
          "internalType": "address",
          "name": "employee",
          "type": "address"
        }
      ],
      "name": "PendingClaimCancelled",
      "type": "event"
    },
    {
      "anonymous": false,
      "inputs": [
        {
          "indexed": true,
          "internalType": "bytes32",
          "name": "role",
          "type": "bytes32"
        },
        {
          "indexed": true,
          "internalType": "bytes32",
          "name": "previousAdminRole",
          "type": "bytes32"
        },
        {
          "indexed": true,
          "internalType": "bytes32",
          "name": "newAdminRole",
          "type": "bytes32"
        }
      ],
      "name": "RoleAdminChanged",
      "type": "event"
    },
    {
      "anonymous": false,
      "inputs": [
        {
          "indexed": true,
          "internalType": "bytes32",
          "name": "role",
          "type": "bytes32"
        },
        {
          "indexed": true,
          "internalType": "address",
          "name": "account",
          "type": "address"
        },
        {
          "indexed": true,
          "internalType": "address",
          "name": "sender",
          "type": "address"
        }
      ],
      "name": "RoleGranted",
      "type": "event"
    },
    {
      "anonymous": false,
      "inputs": [
        {
          "indexed": true,
          "internalType": "bytes32",
          "name": "role",
          "type": "bytes32"
        },
        {
          "indexed": true,
          "internalType": "address",
          "name": "account",
          "type": "address"
        },
        {
          "indexed": true,
          "internalType": "address",
          "name": "sender",
          "type": "address"
        }
      ],
      "name": "RoleRevoked",
      "type": "event"
    },
    {
      "anonymous": false,
      "inputs": [
        {
          "indexed": true,
          "internalType": "address",
          "name": "token",
          "type": "address"
        }
      ],
      "name": "TokenApproved",
      "type": "event"
    },
    {
      "anonymous": false,
      "inputs": [
        {
          "indexed": true,
          "internalType": "address",
          "name": "token",
          "type": "address"
        }
      ],
      "name": "TokenRevoked",
      "type": "event"
    },
    {
      "inputs": [],
      "name": "ADMIN_ROLE",
      "outputs": [
        {
          "internalType": "bytes32",
          "name": "",
          "type": "bytes32"
        }
      ],
      "stateMutability": "view",
      "type": "function"
    },
    {
      "inputs": [],
      "name": "DEFAULT_ADMIN_ROLE",
      "outputs": [
        {
          "internalType": "bytes32",
          "name": "",
          "type": "bytes32"
        }
      ],
      "stateMutability": "view",
      "type": "function"
    },
    {
      "inputs": [],
      "name": "MIN_DEADLINE_BUFFER",
      "outputs": [
        {
          "internalType": "uint64",
          "name": "",
          "type": "uint64"
        }
      ],
      "stateMutability": "view",
      "type": "function"
    },
    {
      "inputs": [
        {
          "internalType": "uint256",
          "name": "payrollId",
          "type": "uint256"
        },
        {
          "internalType": "bool",
          "name": "fundedPlaintext",
          "type": "bool"
        },
        {
          "internalType": "bytes",
          "name": "fundedSig",
          "type": "bytes"
        }
      ],
      "name": "activatePayroll",
      "outputs": [],
      "stateMutability": "nonpayable",
      "type": "function"
    },
    {
      "inputs": [
        {
          "internalType": "address",
          "name": "token",
          "type": "address"
        }
      ],
      "name": "approveToken",
      "outputs": [],
      "stateMutability": "nonpayable",
      "type": "function"
    },
    {
      "inputs": [
        {
          "internalType": "address",
          "name": "",
          "type": "address"
        }
      ],
      "name": "approvedTokens",
      "outputs": [
        {
          "internalType": "bool",
          "name": "",
          "type": "bool"
        }
      ],
      "stateMutability": "view",
      "type": "function"
    },
    {
      "inputs": [
        {
          "internalType": "uint256",
          "name": "payrollId",
          "type": "uint256"
        }
      ],
      "name": "cancelPayroll",
      "outputs": [],
      "stateMutability": "nonpayable",
      "type": "function"
    },
    {
      "inputs": [
        {
          "internalType": "uint256",
          "name": "payrollId",
          "type": "uint256"
        },
        {
          "internalType": "bytes32",
          "name": "requestId",
          "type": "bytes32"
        },
        {
          "internalType": "bool",
          "name": "okPlaintext",
          "type": "bool"
        },
        {
          "internalType": "bytes",
          "name": "okSig",
          "type": "bytes"
        }
      ],
      "name": "cancelPendingClaim",
      "outputs": [],
      "stateMutability": "nonpayable",
      "type": "function"
    },
    {
      "inputs": [
        {
          "internalType": "uint256",
          "name": "",
          "type": "uint256"
        },
        {
          "internalType": "address",
          "name": "",
          "type": "address"
        }
      ],
      "name": "claimed",
      "outputs": [
        {
          "internalType": "bool",
          "name": "",
          "type": "bool"
        }
      ],
      "stateMutability": "view",
      "type": "function"
    },
    {
      "inputs": [
        {
          "internalType": "uint256",
          "name": "payrollId",
          "type": "uint256"
        }
      ],
      "name": "closePayroll",
      "outputs": [],
      "stateMutability": "nonpayable",
      "type": "function"
    },
    {
      "inputs": [
        {
          "internalType": "address",
          "name": "token",
          "type": "address"
        },
        {
          "internalType": "uint64",
          "name": "deadline",
          "type": "uint64"
        },
        {
          "internalType": "uint16",
          "name": "employeeCount",
          "type": "uint16"
        }
      ],
      "name": "createPayroll",
      "outputs": [
        {
          "internalType": "uint256",
          "name": "payrollId",
          "type": "uint256"
        }
      ],
      "stateMutability": "nonpayable",
      "type": "function"
    },
    {
      "inputs": [
        {
          "internalType": "uint256",
          "name": "payrollId",
          "type": "uint256"
        }
      ],
      "name": "finalizeAllocations",
      "outputs": [],
      "stateMutability": "nonpayable",
      "type": "function"
    },
    {
      "inputs": [
        {
          "internalType": "uint256",
          "name": "payrollId",
          "type": "uint256"
        },
        {
          "internalType": "bytes32",
          "name": "requestId",
          "type": "bytes32"
        },
        {
          "internalType": "bool",
          "name": "okPlaintext",
          "type": "bool"
        },
        {
          "internalType": "bytes",
          "name": "okSig",
          "type": "bytes"
        }
      ],
      "name": "finalizeClaim",
      "outputs": [],
      "stateMutability": "nonpayable",
      "type": "function"
    },
    {
      "inputs": [
        {
          "internalType": "uint256",
          "name": "payrollId",
          "type": "uint256"
        },
        {
          "components": [
            {
              "internalType": "uint256",
              "name": "ctHash",
              "type": "uint256"
            },
            {
              "internalType": "uint8",
              "name": "securityZone",
              "type": "uint8"
            },
            {
              "internalType": "uint8",
              "name": "utype",
              "type": "uint8"
            },
            {
              "internalType": "bytes",
              "name": "signature",
              "type": "bytes"
            }
          ],
          "internalType": "struct InEuint64",
          "name": "encryptedAmount",
          "type": "tuple"
        }
      ],
      "name": "fundPayroll",
      "outputs": [],
      "stateMutability": "nonpayable",
      "type": "function"
    },
    {
      "inputs": [
        {
          "internalType": "uint256",
          "name": "payrollId",
          "type": "uint256"
        }
      ],
      "name": "getEscrowHandle",
      "outputs": [
        {
          "internalType": "euint64",
          "name": "",
          "type": "bytes32"
        }
      ],
      "stateMutability": "view",
      "type": "function"
    },
    {
      "inputs": [
        {
          "internalType": "uint256",
          "name": "payrollId",
          "type": "uint256"
        }
      ],
      "name": "getFundedOnceHandle",
      "outputs": [
        {
          "internalType": "ebool",
          "name": "",
          "type": "bytes32"
        }
      ],
      "stateMutability": "view",
      "type": "function"
    },
    {
      "inputs": [
        {
          "internalType": "uint256",
          "name": "payrollId",
          "type": "uint256"
        }
      ],
      "name": "getMyAllocation",
      "outputs": [
        {
          "internalType": "euint64",
          "name": "",
          "type": "bytes32"
        }
      ],
      "stateMutability": "view",
      "type": "function"
    },
    {
      "inputs": [
        {
          "internalType": "uint256",
          "name": "payrollId",
          "type": "uint256"
        }
      ],
      "name": "getMyPendingOkHandle",
      "outputs": [
        {
          "internalType": "bytes32",
          "name": "",
          "type": "bytes32"
        }
      ],
      "stateMutability": "view",
      "type": "function"
    },
    {
      "inputs": [
        {
          "internalType": "uint256",
          "name": "payrollId",
          "type": "uint256"
        }
      ],
      "name": "getMyPendingRequestId",
      "outputs": [
        {
          "internalType": "bytes32",
          "name": "",
          "type": "bytes32"
        }
      ],
      "stateMutability": "view",
      "type": "function"
    },
    {
      "inputs": [
        {
          "internalType": "bytes32",
          "name": "role",
          "type": "bytes32"
        }
      ],
      "name": "getRoleAdmin",
      "outputs": [
        {
          "internalType": "bytes32",
          "name": "",
          "type": "bytes32"
        }
      ],
      "stateMutability": "view",
      "type": "function"
    },
    {
      "inputs": [
        {
          "internalType": "bytes32",
          "name": "role",
          "type": "bytes32"
        },
        {
          "internalType": "address",
          "name": "account",
          "type": "address"
        }
      ],
      "name": "grantRole",
      "outputs": [],
      "stateMutability": "nonpayable",
      "type": "function"
    },
    {
      "inputs": [
        {
          "internalType": "uint256",
          "name": "",
          "type": "uint256"
        },
        {
          "internalType": "address",
          "name": "",
          "type": "address"
        }
      ],
      "name": "hasAllocation",
      "outputs": [
        {
          "internalType": "bool",
          "name": "",
          "type": "bool"
        }
      ],
      "stateMutability": "view",
      "type": "function"
    },
    {
      "inputs": [
        {
          "internalType": "bytes32",
          "name": "role",
          "type": "bytes32"
        },
        {
          "internalType": "address",
          "name": "account",
          "type": "address"
        }
      ],
      "name": "hasRole",
      "outputs": [
        {
          "internalType": "bool",
          "name": "",
          "type": "bool"
        }
      ],
      "stateMutability": "view",
      "type": "function"
    },
    {
      "inputs": [],
      "name": "nextPayrollId",
      "outputs": [
        {
          "internalType": "uint256",
          "name": "",
          "type": "uint256"
        }
      ],
      "stateMutability": "view",
      "type": "function"
    },
    {
      "inputs": [
        {
          "internalType": "uint256",
          "name": "",
          "type": "uint256"
        }
      ],
      "name": "payrolls",
      "outputs": [
        {
          "internalType": "address",
          "name": "employer",
          "type": "address"
        },
        {
          "internalType": "address",
          "name": "token",
          "type": "address"
        },
        {
          "internalType": "uint64",
          "name": "deadline",
          "type": "uint64"
        },
        {
          "internalType": "uint16",
          "name": "employeeCount",
          "type": "uint16"
        },
        {
          "internalType": "uint16",
          "name": "uploadedCount",
          "type": "uint16"
        },
        {
          "internalType": "enum PayrollVault.Status",
          "name": "status",
          "type": "uint8"
        }
      ],
      "stateMutability": "view",
      "type": "function"
    },
    {
      "inputs": [
        {
          "internalType": "bytes32",
          "name": "role",
          "type": "bytes32"
        },
        {
          "internalType": "address",
          "name": "callerConfirmation",
          "type": "address"
        }
      ],
      "name": "renounceRole",
      "outputs": [],
      "stateMutability": "nonpayable",
      "type": "function"
    },
    {
      "inputs": [
        {
          "internalType": "uint256",
          "name": "payrollId",
          "type": "uint256"
        }
      ],
      "name": "requestClaim",
      "outputs": [
        {
          "internalType": "bytes32",
          "name": "requestId",
          "type": "bytes32"
        }
      ],
      "stateMutability": "nonpayable",
      "type": "function"
    },
    {
      "inputs": [
        {
          "internalType": "bytes32",
          "name": "role",
          "type": "bytes32"
        },
        {
          "internalType": "address",
          "name": "account",
          "type": "address"
        }
      ],
      "name": "revokeRole",
      "outputs": [],
      "stateMutability": "nonpayable",
      "type": "function"
    },
    {
      "inputs": [
        {
          "internalType": "address",
          "name": "token",
          "type": "address"
        }
      ],
      "name": "revokeToken",
      "outputs": [],
      "stateMutability": "nonpayable",
      "type": "function"
    },
    {
      "inputs": [
        {
          "internalType": "bytes4",
          "name": "interfaceId",
          "type": "bytes4"
        }
      ],
      "name": "supportsInterface",
      "outputs": [
        {
          "internalType": "bool",
          "name": "",
          "type": "bool"
        }
      ],
      "stateMutability": "view",
      "type": "function"
    },
    {
      "inputs": [
        {
          "internalType": "uint256",
          "name": "payrollId",
          "type": "uint256"
        },
        {
          "internalType": "address[]",
          "name": "employees",
          "type": "address[]"
        },
        {
          "components": [
            {
              "internalType": "uint256",
              "name": "ctHash",
              "type": "uint256"
            },
            {
              "internalType": "uint8",
              "name": "securityZone",
              "type": "uint8"
            },
            {
              "internalType": "uint8",
              "name": "utype",
              "type": "uint8"
            },
            {
              "internalType": "bytes",
              "name": "signature",
              "type": "bytes"
            }
          ],
          "internalType": "struct InEuint64[]",
          "name": "encryptedAmounts",
          "type": "tuple[]"
        }
      ],
      "name": "uploadAllocations",
      "outputs": [],
      "stateMutability": "nonpayable",
      "type": "function"
    },
    {
      "inputs": [
        {
          "internalType": "uint256",
          "name": "payrollId",
          "type": "uint256"
        },
        {
          "internalType": "address",
          "name": "to",
          "type": "address"
        }
      ],
      "name": "withdrawLeftovers",
      "outputs": [],
      "stateMutability": "nonpayable",
      "type": "function"
    }
  ],
  "bytecode": "0x608060405234801561000f575f5ffd5b506040516131f03803806131f083398101604081905261002e9161013c565b60017f9b779b17422d0df92223018b32b4d1fa46e071723d6817e2486d003becc55f005561005c5f82610093565b506100877fa49807205ce4d355092ef5a8a18f56e8913cf4a201fbe287825b095693c2177582610093565b50506001600255610169565b5f828152602081815260408083206001600160a01b038516845290915281205460ff16610133575f838152602081815260408083206001600160a01b03861684529091529020805460ff191660011790556100eb3390565b6001600160a01b0316826001600160a01b0316847f2f8788117e7eff1d82e926ec794901d17c78024a50270940304540a733656f0d60405160405180910390a4506001610136565b505f5b92915050565b5f6020828403121561014c575f5ffd5b81516001600160a01b0381168114610162575f5ffd5b9392505050565b61307a806101765f395ff3fe608060405234801561000f575f5ffd5b50600436106101e7575f3560e01c80636d1ea3fa11610109578063933f4eef1161009e578063b71514d91161006e578063b71514d914610512578063d12e20571461053f578063d547741f14610552578063e00b288a14610565575f5ffd5b8063933f4eef146104dc578063a217fddf146104ef578063a3ca4ee3146104f6578063aeaa0cd1146104ff575f5ffd5b80637d9dfe3e116100d95780637d9dfe3e1461049057806380b2edd8146104a35780638b693fc9146104b657806391d14854146104c9575f5ffd5b80636d1ea3fa1461040a57806371e676811461042c57806372523c791461045657806375b238fc14610469575f5ffd5b8063366a69aa1161017f5780635632b1fa1161014f5780635632b1fa1461034b57806366557129146103c2578063681ef390146103e45780636a5542d1146103f7575f5ffd5b8063366a69aa146102e857806338ce4fd8146102fb5780634b53b35a1461030e5780634e139b5f14610338575f5ffd5b80631bbbdafc116101ba5780631bbbdafc14610268578063248a9ca3146102a05780632f2ff15d146102c257806336568abe146102d5575f5ffd5b806301ffc9a7146101eb57806304a6d7f214610213578063120aa877146102285780631500eaa314610255575b5f5ffd5b6101fe6101f9366004612953565b610578565b60405190151581526020015b60405180910390f35b61022661022136600461297a565b6105ae565b005b6101fe6102363660046129a7565b600660209081525f928352604080842090915290825290205460ff1681565b6102266102633660046129a7565b6106bd565b61029261027636600461297a565b5f908152600a6020908152604080832033845290915290205490565b60405190815260200161020a565b6102926102ae36600461297a565b5f9081526020819052604090206001015490565b6102266102d03660046129a7565b61090c565b6102266102e33660046129a7565b610936565b6102266102f636600461297a565b61096e565b61022661030936600461297a565b610a77565b61029261031c36600461297a565b5f90815260046020908152604080832033845290915290205490565b61029261034636600461297a565b610b72565b6103b061035936600461297a565b60036020525f90815260409020805460018201546002909201546001600160a01b0391821692918216916001600160401b03600160a01b8204169161ffff600160e01b8304811692600160f01b9004169060ff1686565b60405161020a969594939291906129e5565b6103cc6201518081565b6040516001600160401b03909116815260200161020a565b6102266103f2366004612a86565b610be4565b610226610405366004612b47565b610ec3565b6101fe610418366004612b9e565b60016020525f908152604090205460ff1681565b61029261043a36600461297a565b5f90815260096020908152604080832033845290915290205490565b610226610464366004612bb7565b611064565b6102927fa49807205ce4d355092ef5a8a18f56e8913cf4a201fbe287825b095693c2177581565b61022661049e366004612bb7565b6112db565b6102266104b1366004612b9e565b61153d565b6102266104c4366004612c0a565b6115dd565b6101fe6104d73660046129a7565b611834565b6102266104ea366004612b9e565b61185c565b6102925f81565b61029260025481565b61029261050d36600461297a565b6118cf565b6101fe6105203660046129a7565b600560209081525f928352604080842090915290825290205460ff1681565b61029261054d366004612c53565b611941565b6102266105603660046129a7565b611bc6565b61029261057336600461297a565b611bea565b5f6001600160e01b03198216637965db0b60e01b14806105a857506301ffc9a760e01b6001600160e01b03198316145b92915050565b5f81815260036020526040902080546001600160a01b03166105e357604051630d7cc00b60e41b815260040160405180910390fd5b80546001600160a01b0316331461060d576040516302e5827160e11b815260040160405180910390fd5b6001600282015460ff166005811115610628576106286129d1565b1461064657604051632e4baded60e11b815260040160405180910390fd5b6001810154600160f01b810461ffff908116600160e01b909204161461067f57604051631a49577b60e11b815260040160405180910390fd5b6002818101805460ff1916909117905560405182907f9de22881a8b06b05a9b5597c897a279683b0b7780cce23497821d8c4a21fce76905f90a25050565b6106c5611ff6565b5f82815260036020526040902080546001600160a01b03166106fa57604051630d7cc00b60e41b815260040160405180910390fd5b80546001600160a01b03163314610724576040516302e5827160e11b815260040160405180910390fd5b6001600160a01b03821661074b5760405163d92e233d60e01b815260040160405180910390fd5b6004600282015460ff166005811115610766576107666129d1565b1415801561078d57506005600282015460ff16600581111561078a5761078a6129d1565b14155b156107ab57604051632e4baded60e11b815260040160405180910390fd5b5f83815260076020526040902054806107d757604051630686827b60e51b815260040160405180910390fd5b6107e081612011565b6107ea8133612073565b60018201546108039082906001600160a01b03166120e7565b6001820154604051633c3cccf760e11b81523060048201526001600160a01b038581166024830152604482018490525f92169063787999ee906064016020604051808303815f875af115801561085b573d5f5f3e3d5ffd5b505050506040513d601f19601f8201168201806040525081019061087f9190612caa565b905061088a81612011565b5f61089e826108985f61212e565b85612139565b5f87815260076020526040902081905590506108b981612011565b6040516001600160a01b0386169087907fcc304fce50917d7c1f9b1cdb8eb3b508aadcb2c90777999467d97dec5002f7a4905f90a35050505061090860015f5160206130255f395f51905f5255565b5050565b5f828152602081905260409020600101546109268161219a565b61093083836121a7565b50505050565b6001600160a01b038116331461095f5760405163334bd91960e11b815260040160405180910390fd5b6109698282612236565b505050565b5f81815260036020526040902080546001600160a01b03166109a357604051630d7cc00b60e41b815260040160405180910390fd5b80546001600160a01b031633146109cd576040516302e5827160e11b815260040160405180910390fd5b6003600282015460ff1660058111156109e8576109e86129d1565b14610a0657604051632e4baded60e11b815260040160405180910390fd5b6001810154600160a01b90046001600160401b03164211610a3a576040516345ddd91360e01b815260040160405180910390fd5b60028101805460ff1916600417905560405182907f2246dbdfcfcf99be426a5fa95db7f8ce3420962a56a7a85d67ed191fc6459337905f90a25050565b5f81815260036020526040902080546001600160a01b0316610aac57604051630d7cc00b60e41b815260040160405180910390fd5b80546001600160a01b03163314610ad6576040516302e5827160e11b815260040160405180910390fd5b6001600282015460ff166005811115610af157610af16129d1565b14158015610b17575060028082015460ff166005811115610b1457610b146129d1565b14155b15610b3557604051632e4baded60e11b815260040160405180910390fd5b60028101805460ff1916600517905560405182907fc7a000392f1f1b45bafe529eca2628f0c98594d008b213fe08ce9418ae9c7d69905f90a25050565b5f81815260036020526040812080546001600160a01b0316610ba757604051630d7cc00b60e41b815260040160405180910390fd5b80546001600160a01b03163314610bd1576040516302e5827160e11b815260040160405180910390fd5b50505f9081526008602052604090205490565b5f85815260036020526040902080546001600160a01b0316610c1957604051630d7cc00b60e41b815260040160405180910390fd5b80546001600160a01b03163314610c43576040516302e5827160e11b815260040160405180910390fd5b6001600282015460ff166005811115610c5e57610c5e6129d1565b14610c7c57604051632e4baded60e11b815260040160405180910390fd5b83801580610c8a5750808314155b15610cab576040516001621398b960e31b0319815260040160405180910390fd5b5f5b81811015610e6f575f878783818110610cc857610cc8612cc1565b9050602002016020810190610cdd9190612b9e565b90506001600160a01b038116610d065760405163d92e233d60e01b815260040160405180910390fd5b5f8981526005602090815260408083206001600160a01b038516845290915290205460ff1615610d495760405163d889b0bb60e01b815260040160405180910390fd5b5f610d7f878785818110610d5f57610d5f612cc1565b9050602002810190610d719190612cd5565b610d7a90612d6f565b61229f565b5f8b81526004602090815260408083206001600160a01b0387168085529083528184208590558e8452600583528184209084529091529020805460ff191660011790559050610dcd81612011565b6001850154610de69082906001600160a01b0316612073565b610df08183612073565b60018581018054601e90610e10908490600160f01b900461ffff16612e4a565b82546101009290920a61ffff8181021990931691831602179091556001870154600160e01b81048216600160f01b90910490911611159050610e6557604051631a49577b60e11b815260040160405180910390fd5b5050600101610cad565b50600182015460408051838152600160f01b90920461ffff16602083015288917f9ab688b899d3d780d8b867eb9502502b84709b3368fec2937615bed756192b5b910160405180910390a250505050505050565b5f84815260036020526040902080546001600160a01b0316610ef857604051630d7cc00b60e41b815260040160405180910390fd5b80546001600160a01b03163314610f22576040516302e5827160e11b815260040160405180910390fd5b60028082015460ff166005811115610f3c57610f3c6129d1565b14610f5a57604051632e4baded60e11b815260040160405180910390fd5b5f85815260086020908152604091829020548251601f860183900483028101830190935284835291610fa9918391889188908890819084018382808284375f9201919091525061230592505050565b6110055760405162461bcd60e51b815260206004820152602260248201527f506179726f6c6c5661756c743a20696e76616c69642066756e6465642070726f60448201526137b360f11b60648201526084015b60405180910390fd5b8461102357604051636af784dd60e11b815260040160405180910390fd5b60028201805460ff1916600317905560405186907f3cb2286dd378cfa5aca50f548cc0ad35b6ee0dfe45f596127808324ebf59c101905f90a2505050505050565b61106c611ff6565b5f85815260036020526040902080546001600160a01b03166110a157604051630d7cc00b60e41b815260040160405180910390fd5b6003600282015460ff1660058111156110bc576110bc6129d1565b146110da57604051632e4baded60e11b815260040160405180910390fd5b6001810154600160a01b90046001600160401b031642111561110f5760405163387b2e5560e11b815260040160405180910390fd5b5f86815260066020908152604080832033845290915290205460ff161561114957604051630c8d9eab60e31b815260040160405180910390fd5b5f868152600a6020908152604080832033808552908352818420548a855260098452828520918552925290912054811580611182575080155b156111a057604051632470b0cd60e21b815260040160405180910390fd5b8187146111c057604051633241f99560e21b815260040160405180910390fd5b611200818787878080601f0160208091040260200160405190810160405280939291908181526020018383808284375f9201919091525061230592505050565b61121c5760405162461bcd60e51b8152600401610ffc90612e64565b8561123a5760405163569d45cf60e11b815260040160405180910390fd5b5f88815260066020908152604080832033808552908352818420805460ff191660011790558b84526009835281842081855283528184208490558b8452600a8352818420818552835281842093909355518981528a917f25d544f9254ef4d289ecbcd70582f0c5fe1696fa1afd9b21840e5994954e1342910160405180910390a35050506112d460015f5160206130255f395f51905f5255565b5050505050565b6112e3611ff6565b5f85815260036020526040902080546001600160a01b031661131857604051630d7cc00b60e41b815260040160405180910390fd5b6003600282015460ff166005811115611333576113336129d1565b1461135157604051632e4baded60e11b815260040160405180910390fd5b5f86815260066020908152604080832033845290915290205460ff161561138b57604051630c8d9eab60e31b815260040160405180910390fd5b5f868152600a6020908152604080832033808552908352818420548a8552600984528285209185529252909120548115806113c4575080155b156113e257604051639b604d0b60e01b815260040160405180910390fd5b81871461140257604051633241f99560e21b815260040160405180910390fd5b611442818787878080601f0160208091040260200160405190810160405280939291908181526020018383808284375f9201919091525061230592505050565b61145e5760405162461bcd60e51b8152600401610ffc90612e64565b85156114c85760405162461bcd60e51b815260206004820152603360248201527f506179726f6c6c5661756c743a207573652066696e616c697a65436c61696d206044820152720b481c185e5b595b9d081cdd58d8d959591959606a1b6064820152608401610ffc565b5f888152600960209081526040808320338085529083528184208490558b8452600a83528184208185529092528083208390555190918a917f74c9d62874053158e61a4f8cce1c876edb6d1e1ad06d1314e4bb1d442e753b119190a35050506112d460015f5160206130255f395f51905f5255565b7fa49807205ce4d355092ef5a8a18f56e8913cf4a201fbe287825b095693c217756115678161219a565b6001600160a01b03821661158e5760405163d92e233d60e01b815260040160405180910390fd5b6001600160a01b0382165f818152600160208190526040808320805460ff1916909217909155517f5f5916d70d5479c1795a9d461360dfa5c673bc37904c8ab4fcbdc970b9e90f3d9190a25050565b6115e5611ff6565b5f82815260036020526040902080546001600160a01b031661161a57604051630d7cc00b60e41b815260040160405180910390fd5b80546001600160a01b03163314611644576040516302e5827160e11b815260040160405180910390fd5b60028082015460ff16600581111561165e5761165e6129d1565b1415801561168557506003600282015460ff166005811115611682576116826129d1565b14155b156116a357604051632e4baded60e11b815260040160405180910390fd5b5f6116b0610d7a84612d6f565b90506116bb81612011565b60018201546116d49082906001600160a01b03166120e7565b6001820154604051633c3cccf760e11b8152336004820152306024820152604481018390525f916001600160a01b03169063787999ee906064016020604051808303815f875af115801561172a573d5f5f3e3d5ffd5b505050506040513d601f19601f8201168201806040525081019061174e9190612caa565b905061175981612011565b5f61176d82846117685f61212e565b612139565b5f87815260076020526040812054919250906117899083612321565b5f88815260076020526040902081905590506117a481612011565b5f878152600860205260408120546117bc9085612369565b5f89815260086020526040902081905590506117d781612011565b6117e18133612073565b604051828152339089907f54bbc43f914f4eace683938862a1d45888ea76a5b1e0fedd7e7a2febcf07ace69060200160405180910390a350505050505061090860015f5160206130255f395f51905f5255565b5f918252602082815260408084206001600160a01b0393909316845291905290205460ff1690565b7fa49807205ce4d355092ef5a8a18f56e8913cf4a201fbe287825b095693c217756118868161219a565b6001600160a01b0382165f81815260016020526040808220805460ff19169055517f45f62f30e7b8439e0da7d8e560fe39d01238091ce9e789e3d12b514edf98acea9190a25050565b5f81815260036020526040812080546001600160a01b031661190457604051630d7cc00b60e41b815260040160405180910390fd5b80546001600160a01b0316331461192e576040516302e5827160e11b815260040160405180910390fd5b50505f9081526007602052604090205490565b5f6001600160a01b0384166119695760405163d92e233d60e01b815260040160405180910390fd5b6001600160a01b0384165f9081526001602052604090205460ff166119a1576040516332da96a360e01b815260040160405180910390fd5b8161ffff165f036119c557604051631a49577b60e11b815260040160405180910390fd5b6119d26201518042612ea7565b6001600160401b0316836001600160401b03161015611a0457604051631da7447960e21b815260040160405180910390fd5b60028054905f611a1383612ec6565b909155506040805160c0810182523381526001600160a01b0387811660208084019182526001600160401b0389811685870190815261ffff8a8116606088019081525f60808901818152600160a08b018181528d845260039098529a90912089518154908a166001600160a01b03199091161781559651878b0180549551935192518516600160f01b026001600160f01b0393909516600160e01b02929092166001600160e01b0393909616600160a01b026001600160e01b03199095169816979097179290921791909116919091171790925590516002820180549596509294919390929160ff191690836005811115611b1057611b106129d1565b02179055509050505f611b225f61212e565b90505f611b2e5f6123ab565b5f848152600760209081526040808320869055600890915290208190559050611b5682612011565b611b5f81612011565b611b698133612073565b604080516001600160401b038716815261ffff861660208201526001600160a01b03881691339186917f8d45c6b980b4e60a8d258cb0d51a43f5f3d097c3782343313b7df81c618cacc3910160405180910390a450509392505050565b5f82815260208190526040902060010154611be08161219a565b6109308383612236565b5f611bf3611ff6565b5f82815260036020526040902080546001600160a01b0316611c2857604051630d7cc00b60e41b815260040160405180910390fd5b6003600282015460ff166005811115611c4357611c436129d1565b14611c6157604051632e4baded60e11b815260040160405180910390fd5b6001810154600160a01b90046001600160401b0316421115611c965760405163387b2e5560e11b815260040160405180910390fd5b5f83815260066020908152604080832033845290915290205460ff1615611cd057604051630c8d9eab60e31b815260040160405180910390fd5b5f838152600a6020908152604080832033845290915290205415611d0757604051630c8d9eab60e31b815260040160405180910390fd5b5f83815260046020908152604080832033845290915290205480611d3e576040516326e2657960e21b815260040160405180910390fd5b611d488133612073565b6001820154611d619082906001600160a01b0316612073565b611d6a81612011565b5f8481526007602052604081205490611d8382846123b6565b90505f611d9482856117685f61212e565b9050611d9f81612011565b611da98133612073565b6001850154611dc29082906001600160a01b03166120e7565b6001850154604051633c3cccf760e11b8152306004820152336024820152604481018390525f916001600160a01b03169063787999ee906064016020604051808303815f875af1158015611e18573d5f5f3e3d5ffd5b505050506040513d601f19601f82011682018060405250810190611e3c9190612caa565b9050611e4781612011565b5f611e5284836123f7565b9050611e5d81612011565b611e678133612073565b5f611e7682886117685f61212e565b90505f611e838783612439565b5f8c81526007602052604090208190559050611e9e81612011565b5f8b8152600b60209081526040808320338452909152812080549082611ec383612ec6565b9091555060408051602081018f90526bffffffffffffffffffffffff193360601b169181019190915260548101869052607481018890526094810182905290915060b401604051602081830303815290604052805190602001209a508360095f8e81526020019081526020015f205f336001600160a01b03166001600160a01b031681526020019081526020015f20819055508a600a5f8e81526020019081526020015f205f336001600160a01b03166001600160a01b031681526020019081526020015f2081905550336001600160a01b03168c7f86a3bb2a8fc75522008d27f5a2bf939dd2bfa193b2dcbc609546f64eb722ba9d8d604051611fc991815260200190565b60405180910390a350505050505050505050611ff160015f5160206130255f395f51905f5255565b919050565b611ffe61247a565b60025f5160206130255f395f51905f5255565b604051631974142760e21b81526004810182905230602482015273ea30c4b8b44078bbf8a6ef5b9f1ec1626c7848d9906365d0509c906044015f604051808303815f87803b158015612061575f5ffd5b505af11580156112d4573d5f5f3e3d5ffd5b604051631974142760e21b8152600481018390526001600160a01b038216602482015273ea30c4b8b44078bbf8a6ef5b9f1ec1626c7848d9906365d0509c906044015b5f604051808303815f87803b1580156120cd575f5ffd5b505af11580156120df573d5f5f3e3d5ffd5b505050505050565b6040516346ce4e4960e11b8152600481018390526001600160a01b038216602482015273ea30c4b8b44078bbf8a6ef5b9f1ec1626c7848d990638d9c9c92906044016120b6565b5f6105a8825f6124ab565b5f612143846124b9565b612153576121505f6123ab565b93505b61215c836124b9565b61216c576121695f61212e565b92505b612175826124b9565b612185576121825f61212e565b91505b61219260058585856124c2565b949350505050565b6121a48133612565565b50565b5f6121b28383611834565b61222f575f838152602081815260408083206001600160a01b03861684529091529020805460ff191660011790556121e73390565b6001600160a01b0316826001600160a01b0316847f2f8788117e7eff1d82e926ec794901d17c78024a50270940304540a733656f0d60405160405180910390a45060016105a8565b505f6105a8565b5f6122418383611834565b1561222f575f838152602081815260408083206001600160a01b0386168085529252808320805460ff1916905551339286917ff6391f5c32d9c69d2a47ea670b442974b53935d1edc7fd64eb21e047a839171b9190a45060016105a8565b5f6122af8260400151600561259e565b60408051608080820183525f808352602080840182905283850191909152606092830183905283519182018452855182528086015160ff169082015260059281019290925280840151908201526105a8906125d1565b5f6121928484612315575f612318565b60015b60ff168461264c565b5f61232b836124b9565b61233b576123385f61212e565b92505b612344826124b9565b612354576123515f61212e565b91505b6123626005848460086126c8565b9392505050565b5f612373836124b9565b6123845761238160016123ab565b92505b61238d826124b9565b61239e5761239b60016123ab565b91505b6123625f8484600b6126c8565b5f6105a8825f6126ef565b5f6123c0836124b9565b6123d0576123cd5f61212e565b92505b6123d9826124b9565b6123e9576123e65f61212e565b91505b6123626005848460126126c8565b5f612401836124b9565b6124125761240f60016123ab565b92505b61241b826124b9565b61242c5761242960016123ab565b91505b6123625f8484600a6126c8565b5f612443836124b9565b612453576124505f61212e565b92505b61245c826124b9565b61246c576124695f61212e565b91505b6123626005848460076126c8565b5f5160206130255f395f51905f52546002036124a957604051633ee5aeb560e01b815260040160405180910390fd5b565b5f5f61219284600585612703565b5f8115156105a8565b5f73ea30c4b8b44078bbf8a6ef5b9f1ec1626c7848d9631888debd8660046124eb8888886127a8565b604080515f815260208101918290526001600160e01b031960e087901b1690915261251c9392919060248101612f18565b6020604051808303815f875af1158015612538573d5f5f3e3d5ffd5b505050506040513d601f19601f8201168201806040525081019061255c9190612caa565b95945050505050565b61256f8282611834565b6109085760405163e2517d3f60e01b81526001600160a01b038216600482015260248101839052604401610ffc565b8060ff168260ff1614610908576040516367cf307160e01b815260ff808416600483015282166024820152604401610ffc565b6040516313fce3b160e11b81525f9073ea30c4b8b44078bbf8a6ef5b9f1ec1626c7848d9906327f9c7629061260c9085903390600401612f94565b6020604051808303815f875af1158015612628573d5f5f3e3d5ffd5b505050506040513d601f19601f820116820180604052508101906105a89190612caa565b604051630135f2c360e61b81525f9073ea30c4b8b44078bbf8a6ef5b9f1ec1626c7848d990634d7cb0c09061268990879087908790600401612feb565b602060405180830381865afa1580156126a4573d5f5f3e3d5ffd5b505050506040513d601f19601f820116820180604052508101906121929190613009565b5f73ea30c4b8b44078bbf8a6ef5b9f1ec1626c7848d9631888debd86846124eb8888612839565b5f8083156126fb575060015b5f61255c825f865b604080515f8082526020820190925273ea30c4b8b44078bbf8a6ef5b9f1ec1626c7848d990631888debd908590601a90612749898960ff166127448a6128a6565b6128db565b6040518563ffffffff1660e01b81526004016127689493929190612f18565b6020604051808303815f875af1158015612784573d5f5f3e3d5ffd5b505050506040513d601f19601f820116820180604052508101906121929190612caa565b604080516003808252608082019092526060915f9190602082018480368337019050509050845f1c815f815181106127e2576127e2612cc1565b602002602001018181525050835f1c8160018151811061280457612804612cc1565b602002602001018181525050825f1c8160028151811061282657612826612cc1565b6020908102919091010152949350505050565b60408051600280825260608083018452925f929190602083019080368337019050509050835f1c815f8151811061287257612872612cc1565b602002602001018181525050825f1c8160018151811061289457612894612cc1565b60209081029190910101529392505050565b5f5f8260030b12156128d1576040516311ead17f60e31b8152600383900b6004820152602401610ffc565b5063ffffffff1690565b604080516003808252608082019092526060915f919060208201848036833701905050905084815f8151811061291357612913612cc1565b602002602001018181525050838160018151811061293357612933612cc1565b602002602001018181525050828160028151811061282657612826612cc1565b5f60208284031215612963575f5ffd5b81356001600160e01b031981168114612362575f5ffd5b5f6020828403121561298a575f5ffd5b5035919050565b80356001600160a01b0381168114611ff1575f5ffd5b5f5f604083850312156129b8575f5ffd5b823591506129c860208401612991565b90509250929050565b634e487b7160e01b5f52602160045260245ffd5b6001600160a01b038781168252861660208201526001600160401b038516604082015261ffff84811660608301528316608082015260c0810160068310612a2e57612a2e6129d1565b8260a0830152979650505050505050565b5f5f83601f840112612a4f575f5ffd5b5081356001600160401b03811115612a65575f5ffd5b6020830191508360208260051b8501011115612a7f575f5ffd5b9250929050565b5f5f5f5f5f60608688031215612a9a575f5ffd5b8535945060208601356001600160401b03811115612ab6575f5ffd5b612ac288828901612a3f565b90955093505060408601356001600160401b03811115612ae0575f5ffd5b612aec88828901612a3f565b969995985093965092949392505050565b80151581146121a4575f5ffd5b5f5f83601f840112612b1a575f5ffd5b5081356001600160401b03811115612b30575f5ffd5b602083019150836020828501011115612a7f575f5ffd5b5f5f5f5f60608587031215612b5a575f5ffd5b843593506020850135612b6c81612afd565b925060408501356001600160401b03811115612b86575f5ffd5b612b9287828801612b0a565b95989497509550505050565b5f60208284031215612bae575f5ffd5b61236282612991565b5f5f5f5f5f60808688031215612bcb575f5ffd5b85359450602086013593506040860135612be481612afd565b925060608601356001600160401b03811115612bfe575f5ffd5b612aec88828901612b0a565b5f5f60408385031215612c1b575f5ffd5b8235915060208301356001600160401b03811115612c37575f5ffd5b830160808186031215612c48575f5ffd5b809150509250929050565b5f5f5f60608486031215612c65575f5ffd5b612c6e84612991565b925060208401356001600160401b0381168114612c89575f5ffd5b9150604084013561ffff81168114612c9f575f5ffd5b809150509250925092565b5f60208284031215612cba575f5ffd5b5051919050565b634e487b7160e01b5f52603260045260245ffd5b5f8235607e19833603018112612ce9575f5ffd5b9190910192915050565b634e487b7160e01b5f52604160045260245ffd5b604051608081016001600160401b0381118282101715612d2957612d29612cf3565b60405290565b604051601f8201601f191681016001600160401b0381118282101715612d5757612d57612cf3565b604052919050565b803560ff81168114611ff1575f5ffd5b5f60808236031215612d7f575f5ffd5b612d87612d07565b82358152612d9760208401612d5f565b6020820152612da860408401612d5f565b604082015260608301356001600160401b03811115612dc5575f5ffd5b830136601f820112612dd5575f5ffd5b80356001600160401b03811115612dee57612dee612cf3565b612e01601f8201601f1916602001612d2f565b818152366020838501011115612e15575f5ffd5b816020840160208301375f9181016020019190915260608301525092915050565b634e487b7160e01b5f52601160045260245ffd5b61ffff81811683821601908111156105a8576105a8612e36565b60208082526023908201527f506179726f6c6c5661756c743a20696e76616c6964206465637279707420707260408201526237b7b360e91b606082015260800190565b6001600160401b0381811683821601908111156105a8576105a8612e36565b5f60018201612ed757612ed7612e36565b5060010190565b5f8151808452602084019350602083015f5b82811015612f0e578151865260209586019590910190600101612ef0565b5093949350505050565b60ff851681525f60208510612f2f57612f2f6129d1565b84602083015260806040830152612f496080830185612ede565b8281036060840152612f5b8185612ede565b979650505050505050565b5f81518084528060208401602086015e5f602082860101526020601f19601f83011685010191505092915050565b604081528251604082015260ff602084015116606082015260ff60408401511660808201525f6060840151608060a0840152612fd360c0840182612f66565b91505060018060a01b03831660208301529392505050565b838152826020820152606060408201525f61255c6060830184612f66565b5f60208284031215613019575f5ffd5b815161236281612afd56fe9b779b17422d0df92223018b32b4d1fa46e071723d6817e2486d003becc55f00a2646970667358221220ffdd521ce0e15ac685eebbeecc664745798d05111bed6cf18bd1d8efa7f14ee664736f6c634300081c0033",
  "linkReferences": {},
  "deployedLinkReferences": {}
}