{
  "_format": "hh-sol-artifact-1",
  "contractName": "SwapRouter",
  "sourceName": "contracts/SwapRouter.sol",
  "abi": [
    {
      "inputs": [
        {
          "internalType": "address",
          "name": "admin",
          "type": "address"
        },
        {
          "internalType": "address",
          "name": "usdcAddr",
          "type": "address"
        },
        {
          "internalType": "address",
          "name": "confidentialTokenAddr",
          "type": "address"
        }
      ],
      "stateMutability": "nonpayable",
      "type": "constructor"
    },
    {
      "inputs": [],
      "name": "AccessControlBadConfirmation",
      "type": "error"
    },
    {
      "inputs": [
        {
          "internalType": "address",
          "name": "account",
          "type": "address"
        },
        {
          "internalType": "bytes32",
          "name": "neededRole",
          "type": "bytes32"
        }
      ],
      "name": "AccessControlUnauthorizedAccount",
      "type": "error"
    },
    {
      "inputs": [],
      "name": "AmountTooSmall",
      "type": "error"
    },
    {
      "inputs": [],
      "name": "InvalidDecryptProof",
      "type": "error"
    },
    {
      "inputs": [
        {
          "internalType": "uint8",
          "name": "got",
          "type": "uint8"
        },
        {
          "internalType": "uint8",
          "name": "expected",
          "type": "uint8"
        }
      ],
      "name": "InvalidEncryptedInput",
      "type": "error"
    },
    {
      "inputs": [],
      "name": "NotEnoughBalance",
      "type": "error"
    },
    {
      "inputs": [],
      "name": "NotWithdrawOwner",
      "type": "error"
    },
    {
      "inputs": [],
      "name": "ReentrancyGuardReentrantCall",
      "type": "error"
    },
    {
      "inputs": [
        {
          "internalType": "address",
          "name": "token",
          "type": "address"
        }
      ],
      "name": "SafeERC20FailedOperation",
      "type": "error"
    },
    {
      "inputs": [],
      "name": "WithdrawAlreadyPendingForKey",
      "type": "error"
    },
    {
      "inputs": [],
      "name": "WithdrawCanBeFinalized",
      "type": "error"
    },
    {
      "inputs": [],
      "name": "WithdrawNotRequested",
      "type": "error"
    },
    {
      "inputs": [],
      "name": "ZeroAmount",
      "type": "error"
    },
    {
      "anonymous": false,
      "inputs": [
        {
          "indexed": true,
          "internalType": "address",
          "name": "user",
          "type": "address"
        },
        {
          "indexed": false,
          "internalType": "uint256",
          "name": "amount",
          "type": "uint256"
        }
      ],
      "name": "Deposited",
      "type": "event"
    },
    {
      "anonymous": false,
      "inputs": [
        {
          "indexed": true,
          "internalType": "bytes32",
          "name": "role",
          "type": "bytes32"
        },
        {
          "indexed": true,
          "internalType": "bytes32",
          "name": "previousAdminRole",
          "type": "bytes32"
        },
        {
          "indexed": true,
          "internalType": "bytes32",
          "name": "newAdminRole",
          "type": "bytes32"
        }
      ],
      "name": "RoleAdminChanged",
      "type": "event"
    },
    {
      "anonymous": false,
      "inputs": [
        {
          "indexed": true,
          "internalType": "bytes32",
          "name": "role",
          "type": "bytes32"
        },
        {
          "indexed": true,
          "internalType": "address",
          "name": "account",
          "type": "address"
        },
        {
          "indexed": true,
          "internalType": "address",
          "name": "sender",
          "type": "address"
        }
      ],
      "name": "RoleGranted",
      "type": "event"
    },
    {
      "anonymous": false,
      "inputs": [
        {
          "indexed": true,
          "internalType": "bytes32",
          "name": "role",
          "type": "bytes32"
        },
        {
          "indexed": true,
          "internalType": "address",
          "name": "account",
          "type": "address"
        },
        {
          "indexed": true,
          "internalType": "address",
          "name": "sender",
          "type": "address"
        }
      ],
      "name": "RoleRevoked",
      "type": "event"
    },
    {
      "anonymous": false,
      "inputs": [
        {
          "indexed": true,
          "internalType": "address",
          "name": "user",
          "type": "address"
        },
        {
          "indexed": true,
          "internalType": "bytes32",
          "name": "withdrawKey",
          "type": "bytes32"
        },
        {
          "indexed": false,
          "internalType": "bytes32",
          "name": "requestId",
          "type": "bytes32"
        }
      ],
      "name": "WithdrawCancelled",
      "type": "event"
    },
    {
      "anonymous": false,
      "inputs": [
        {
          "indexed": true,
          "internalType": "address",
          "name": "user",
          "type": "address"
        },
        {
          "indexed": true,
          "internalType": "bytes32",
          "name": "withdrawKey",
          "type": "bytes32"
        },
        {
          "indexed": false,
          "internalType": "bytes32",
          "name": "requestId",
          "type": "bytes32"
        },
        {
          "indexed": false,
          "internalType": "uint256",
          "name": "nonce",
          "type": "uint256"
        }
      ],
      "name": "WithdrawRequested",
      "type": "event"
    },
    {
      "anonymous": false,
      "inputs": [
        {
          "indexed": true,
          "internalType": "address",
          "name": "user",
          "type": "address"
        },
        {
          "indexed": true,
          "internalType": "bytes32",
          "name": "withdrawKey",
          "type": "bytes32"
        },
        {
          "indexed": false,
          "internalType": "bytes32",
          "name": "requestId",
          "type": "bytes32"
        }
      ],
      "name": "Withdrawn",
      "type": "event"
    },
    {
      "inputs": [],
      "name": "DEFAULT_ADMIN_ROLE",
      "outputs": [
        {
          "internalType": "bytes32",
          "name": "",
          "type": "bytes32"
        }
      ],
      "stateMutability": "view",
      "type": "function"
    },
    {
      "inputs": [],
      "name": "MIN_WITHDRAW",
      "outputs": [
        {
          "internalType": "uint64",
          "name": "",
          "type": "uint64"
        }
      ],
      "stateMutability": "view",
      "type": "function"
    },
    {
      "inputs": [],
      "name": "cToken",
      "outputs": [
        {
          "internalType": "contract IConfidentialToken",
          "name": "",
          "type": "address"
        }
      ],
      "stateMutability": "view",
      "type": "function"
    },
    {
      "inputs": [
        {
          "internalType": "bytes32",
          "name": "withdrawKey",
          "type": "bytes32"
        },
        {
          "internalType": "bytes32",
          "name": "requestId",
          "type": "bytes32"
        },
        {
          "internalType": "uint64",
          "name": "amountPlain",
          "type": "uint64"
        },
        {
          "internalType": "bytes",
          "name": "amountSig",
          "type": "bytes"
        },
        {
          "internalType": "bool",
          "name": "okPlain",
          "type": "bool"
        },
        {
          "internalType": "bytes",
          "name": "okSig",
          "type": "bytes"
        }
      ],
      "name": "cancelPendingWithdraw",
      "outputs": [],
      "stateMutability": "nonpayable",
      "type": "function"
    },
    {
      "inputs": [
        {
          "internalType": "uint256",
          "name": "amount",
          "type": "uint256"
        }
      ],
      "name": "deposit",
      "outputs": [],
      "stateMutability": "nonpayable",
      "type": "function"
    },
    {
      "inputs": [
        {
          "internalType": "bytes32",
          "name": "withdrawKey",
          "type": "bytes32"
        },
        {
          "internalType": "bytes32",
          "name": "requestId",
          "type": "bytes32"
        },
        {
          "internalType": "uint64",
          "name": "amountPlain",
          "type": "uint64"
        },
        {
          "internalType": "bytes",
          "name": "amountSig",
          "type": "bytes"
        },
        {
          "internalType": "bool",
          "name": "okPlain",
          "type": "bool"
        },
        {
          "internalType": "bytes",
          "name": "okSig",
          "type": "bytes"
        }
      ],
      "name": "finalizeWithdraw",
      "outputs": [],
      "stateMutability": "nonpayable",
      "type": "function"
    },
    {
      "inputs": [
        {
          "internalType": "bytes32",
          "name": "withdrawKey",
          "type": "bytes32"
        }
      ],
      "name": "getPendingAmountHandle",
      "outputs": [
        {
          "internalType": "bytes32",
          "name": "",
          "type": "bytes32"
        }
      ],
      "stateMutability": "view",
      "type": "function"
    },
    {
      "inputs": [
        {
          "internalType": "bytes32",
          "name": "withdrawKey",
          "type": "bytes32"
        }
      ],
      "name": "getPendingOkHandle",
      "outputs": [
        {
          "internalType": "bytes32",
          "name": "",
          "type": "bytes32"
        }
      ],
      "stateMutability": "view",
      "type": "function"
    },
    {
      "inputs": [
        {
          "internalType": "bytes32",
          "name": "withdrawKey",
          "type": "bytes32"
        }
      ],
      "name": "getPendingRequestId",
      "outputs": [
        {
          "internalType": "bytes32",
          "name": "",
          "type": "bytes32"
        }
      ],
      "stateMutability": "view",
      "type": "function"
    },
    {
      "inputs": [
        {
          "internalType": "bytes32",
          "name": "withdrawKey",
          "type": "bytes32"
        }
      ],
      "name": "getPendingUser",
      "outputs": [
        {
          "internalType": "address",
          "name": "",
          "type": "address"
        }
      ],
      "stateMutability": "view",
      "type": "function"
    },
    {
      "inputs": [
        {
          "internalType": "bytes32",
          "name": "withdrawKey",
          "type": "bytes32"
        }
      ],
      "name": "getPendingWithdraw",
      "outputs": [
        {
          "internalType": "address",
          "name": "user",
          "type": "address"
        },
        {
          "internalType": "bytes32",
          "name": "amountHandle",
          "type": "bytes32"
        },
        {
          "internalType": "bytes32",
          "name": "okHandle",
          "type": "bytes32"
        },
        {
          "internalType": "bytes32",
          "name": "requestId",
          "type": "bytes32"
        }
      ],
      "stateMutability": "view",
      "type": "function"
    },
    {
      "inputs": [
        {
          "internalType": "bytes32",
          "name": "role",
          "type": "bytes32"
        }
      ],
      "name": "getRoleAdmin",
      "outputs": [
        {
          "internalType": "bytes32",
          "name": "",
          "type": "bytes32"
        }
      ],
      "stateMutability": "view",
      "type": "function"
    },
    {
      "inputs": [
        {
          "internalType": "bytes32",
          "name": "role",
          "type": "bytes32"
        },
        {
          "internalType": "address",
          "name": "account",
          "type": "address"
        }
      ],
      "name": "grantRole",
      "outputs": [],
      "stateMutability": "nonpayable",
      "type": "function"
    },
    {
      "inputs": [
        {
          "internalType": "bytes32",
          "name": "role",
          "type": "bytes32"
        },
        {
          "internalType": "address",
          "name": "account",
          "type": "address"
        }
      ],
      "name": "hasRole",
      "outputs": [
        {
          "internalType": "bool",
          "name": "",
          "type": "bool"
        }
      ],
      "stateMutability": "view",
      "type": "function"
    },
    {
      "inputs": [
        {
          "internalType": "bytes32",
          "name": "role",
          "type": "bytes32"
        },
        {
          "internalType": "address",
          "name": "callerConfirmation",
          "type": "address"
        }
      ],
      "name": "renounceRole",
      "outputs": [],
      "stateMutability": "nonpayable",
      "type": "function"
    },
    {
      "inputs": [
        {
          "internalType": "bytes32",
          "name": "withdrawKey",
          "type": "bytes32"
        },
        {
          "components": [
            {
              "internalType": "uint256",
              "name": "ctHash",
              "type": "uint256"
            },
            {
              "internalType": "uint8",
              "name": "securityZone",
              "type": "uint8"
            },
            {
              "internalType": "uint8",
              "name": "utype",
              "type": "uint8"
            },
            {
              "internalType": "bytes",
              "name": "signature",
              "type": "bytes"
            }
          ],
          "internalType": "struct InEuint64",
          "name": "encryptedAmount",
          "type": "tuple"
        }
      ],
      "name": "requestWithdraw",
      "outputs": [
        {
          "internalType": "bytes32",
          "name": "amountHandle",
          "type": "bytes32"
        },
        {
          "internalType": "bytes32",
          "name": "requestId",
          "type": "bytes32"
        }
      ],
      "stateMutability": "nonpayable",
      "type": "function"
    },
    {
      "inputs": [
        {
          "internalType": "bytes32",
          "name": "role",
          "type": "bytes32"
        },
        {
          "internalType": "address",
          "name": "account",
          "type": "address"
        }
      ],
      "name": "revokeRole",
      "outputs": [],
      "stateMutability": "nonpayable",
      "type": "function"
    },
    {
      "inputs": [
        {
          "internalType": "bytes4",
          "name": "interfaceId",
          "type": "bytes4"
        }
      ],
      "name": "supportsInterface",
      "outputs": [
        {
          "internalType": "bool",
          "name": "",
          "type": "bool"
        }
      ],
      "stateMutability": "view",
      "type": "function"
    },
    {
      "inputs": [],
      "name": "usdc",
      "outputs": [
        {
          "internalType": "contract IERC20",
          "name": "",
          "type": "address"
        }
      ],
      "stateMutability": "view",
      "type": "function"
    },
    {
      "inputs": [
        {
          "internalType": "address",
          "name": "",
          "type": "address"
        }
      ],
      "name": "withdrawNonce",
      "outputs": [
        {
          "internalType": "uint256",
          "name": "",
          "type": "uint256"
        }
      ],
      "stateMutability": "view",
      "type": "function"
    }
  ],
  "bytecode": "0x60c060405234801561000f575f5ffd5b50604051611a10380380611a1083398101604081905261002e91610139565b60017f9b779b17422d0df92223018b32b4d1fa46e071723d6817e2486d003becc55f005561005c5f84610075565b506001600160a01b039182166080521660a05250610179565b5f828152602081815260408083206001600160a01b038516845290915281205460ff16610115575f838152602081815260408083206001600160a01b03861684529091529020805460ff191660011790556100cd3390565b6001600160a01b0316826001600160a01b0316847f2f8788117e7eff1d82e926ec794901d17c78024a50270940304540a733656f0d60405160405180910390a4506001610118565b505f5b92915050565b80516001600160a01b0381168114610134575f5ffd5b919050565b5f5f5f6060848603121561014b575f5ffd5b6101548461011e565b92506101626020850161011e565b91506101706040850161011e565b90509250925092565b60805160a0516118536101bd5f395f81816102fe015281816107a9015281816107eb0152610a6701525f81816102af01528181610a230152610dac01526118535ff3fe608060405234801561000f575f5ffd5b5060043610610126575f3560e01c806369e527da116100a9578063b6b55f251161006e578063b6b55f251461037b578063babdba201461038e578063d547741f146103b0578063fbc45f7f146103c3578063fbee709a146103e3575f5ffd5b806369e527da146102f9578063792adb811461032057806391d14854146103425780639c338ab714610355578063a217fddf14610374575f5ffd5b806334700bcd116100ef57806334700bcd146101cd57806336568abe1461020d578063394cd10f146102205780633e413bee146102aa578063483c1b4b146102d1575f5ffd5b806231fba51461012a57806301ffc9a71461013f57806317e9987314610167578063248a9ca3146101985780632f2ff15d146101ba575b5f5ffd5b61013d61013836600461143d565b6103f6565b005b61015261014d3660046114ec565b6106b1565b60405190151581526020015b60405180910390f35b61018a61017536600461151a565b5f908152600160208190526040909120015490565b60405190815260200161015e565b61018a6101a636600461151a565b5f9081526020819052604090206001015490565b61013d6101c836600461154c565b6106e7565b6101f56101db36600461151a565b5f908152600160205260409020546001600160a01b031690565b6040516001600160a01b03909116815260200161015e565b61013d61021b36600461154c565b610711565b61028061022e36600461151a565b5f90815260016020818152604092839020835160808101855281546001600160a01b03168082529382015492810183905260028201549481018590526003909101546060909101819052919390929190565b604080516001600160a01b039095168552602085019390935291830152606082015260800161015e565b6101f57f000000000000000000000000000000000000000000000000000000000000000081565b6102e46102df366004611576565b610749565b6040805192835260208301919091520161015e565b6101f57f000000000000000000000000000000000000000000000000000000000000000081565b61018a61032e36600461151a565b5f9081526001602052604090206002015490565b61015261035036600461154c565b6109ce565b61018a6103633660046115bf565b60026020525f908152604090205481565b61018a5f81565b61013d61038936600461151a565b6109f6565b61018a61039c36600461151a565b5f9081526001602052604090206003015490565b61013d6103be36600461154c565b610afe565b6103cb600181565b6040516001600160401b03909116815260200161015e565b61013d6103f136600461143d565b610b22565b6103fe610e18565b5f88815260016020818152604092839020835160808101855281546001600160a01b031680825293820154928101929092526002810154938201939093526003909201546060830152158061045557506060810151155b15610472576040516203117960ed1b815260040160405180910390fd5b80516001600160a01b0316331461049c57604051633c5fc10960e01b815260040160405180910390fd5b806060015188146104c057604051633241f99560e21b815260040160405180910390fd5b61050481602001518888888080601f0160208091040260200160405190810160405280939291908181526020018383808284375f92019190915250610e4692505050565b6105555760405162461bcd60e51b815260206004820152601c60248201527f53776170526f757465723a2062616420616d6f756e742070726f6f660000000060448201526064015b60405180910390fd5b61059981604001518585858080601f0160208091040260200160405190810160405280939291908181526020018383808284375f92019190915250610e6392505050565b6105e05760405162461bcd60e51b815260206004820152601860248201527729bbb0b82937baba32b91d103130b21037b590383937b7b360411b604482015260640161054c565b8380156105f7575060016001600160401b03881610155b15610615576040516348f4181d60e11b815260040160405180910390fd5b5f89815260016020818152604080842080546001600160a01b031916815592830184905560028301849055600390920192909255518981528a9133917f37108874177789236bbec43fcc8988fc4f205c2154fe9e219f744ea5d9163fd891015b60405180910390a3506106a760017f9b779b17422d0df92223018b32b4d1fa46e071723d6817e2486d003becc55f0055565b5050505050505050565b5f6001600160e01b03198216637965db0b60e01b14806106e157506301ffc9a760e01b6001600160e01b03198316145b92915050565b5f8281526020819052604090206001015461070181610e7f565b61070b8383610e8c565b50505050565b6001600160a01b038116331461073a5760405163334bd91960e11b815260040160405180910390fd5b6107448282610f1b565b505050565b5f82815260016020526040812060038101548291901561077c57604051639707554d60e01b815260040160405180910390fd5b5f61078e61078986611654565b610f84565b905061079981610fea565b6107a38133611053565b6107cd817f00000000000000000000000000000000000000000000000000000000000000006110c7565b604051635145baa960e11b8152336004820152602481018290525f907f00000000000000000000000000000000000000000000000000000000000000006001600160a01b03169063a28b7552906044016020604051808303815f875af1158015610839573d5f5f3e3d5ffd5b505050506040513d601f19601f8201168201806040525081019061085d919061171b565b9050818161086a81610fea565b6108748333611053565b335f9081526002602052604081208054908261088f83611732565b9091555060408051602081018d90526bffffffffffffffffffffffff193360601b169181019190915260548101859052607481018490526094810182905290915060b4016040516020818303038152906040528051906020012096506040518060800160405280336001600160a01b031681526020018481526020018381526020018881525060015f8c81526020019081526020015f205f820151815f015f6101000a8154816001600160a01b0302191690836001600160a01b0316021790555060208201518160010155604082015181600201556060820151816003015590505089336001600160a01b03167f57cfbef4723e2103e108595ccd9e1d1ad2515d9ab6e5f048c83ddfbe80cd0c4289846040516109b6929190918252602082015260400190565b60405180910390a350909550505050505b9250929050565b5f918252602082815260408084206001600160a01b0393909316845291905290205460ff1690565b805f03610a1657604051631f2a200560e01b815260040160405180910390fd5b610a4b6001600160a01b037f00000000000000000000000000000000000000000000000000000000000000001633308461110e565b6040516308934a5f60e31b8152336004820152602481018290527f00000000000000000000000000000000000000000000000000000000000000006001600160a01b03169063449a52f8906044015f604051808303815f87803b158015610ab0575f5ffd5b505af1158015610ac2573d5f5f3e3d5ffd5b50506040518381523392507f2da466a7b24304f47e87fa2e1e5a81b9831ce54fec19055ce277ca2f39ba42c4915060200160405180910390a250565b5f82815260208190526040902060010154610b1881610e7f565b61070b8383610f1b565b610b2a610e18565b5f88815260016020818152604092839020835160808101855281546001600160a01b0316808252938201549281019290925260028101549382019390935260039092015460608301521580610b8157506060810151155b15610b9e576040516203117960ed1b815260040160405180910390fd5b80516001600160a01b03163314610bc857604051633c5fc10960e01b815260040160405180910390fd5b80606001518814610bec57604051633241f99560e21b815260040160405180910390fd5b610c3081602001518888888080601f0160208091040260200160405190810160405280939291908181526020018383808284375f92019190915250610e4692505050565b610c7c5760405162461bcd60e51b815260206004820152601c60248201527f53776170526f757465723a2062616420616d6f756e742070726f6f6600000000604482015260640161054c565b610cc081604001518585858080601f0160208091040260200160405190810160405280939291908181526020018383808284375f92019190915250610e6392505050565b610d075760405162461bcd60e51b815260206004820152601860248201527729bbb0b82937baba32b91d103130b21037b590383937b7b360411b604482015260640161054c565b866001600160401b03165f03610d3057604051631f2a200560e01b815260040160405180910390fd5b60016001600160401b0388161015610d5b5760405163617ab12d60e11b815260040160405180910390fd5b83610d795760405163569d45cf60e11b815260040160405180910390fd5b5f898152600160208190526040822080546001600160a01b03191681559081018290556002810182905560030155610de47f00000000000000000000000000000000000000000000000000000000000000006001600160a01b0316336001600160401b038a16611144565b604051888152899033907f67a743a027a48dcdeef18aeb53e42a319f7c728fd6004ed235caa98a8e793dcd90602001610675565b610e20611179565b60027f9b779b17422d0df92223018b32b4d1fa46e071723d6817e2486d003becc55f0055565b5f610e5b84846001600160401b0316846111bd565b949350505050565b5f610e5b8484610e73575f610e76565b60015b60ff16846111bd565b610e898133611239565b50565b5f610e9783836109ce565b610f14575f838152602081815260408083206001600160a01b03861684529091529020805460ff19166001179055610ecc3390565b6001600160a01b0316826001600160a01b0316847f2f8788117e7eff1d82e926ec794901d17c78024a50270940304540a733656f0d60405160405180910390a45060016106e1565b505f6106e1565b5f610f2683836109ce565b15610f14575f838152602081815260408083206001600160a01b0386168085529252808320805460ff1916905551339286917ff6391f5c32d9c69d2a47ea670b442974b53935d1edc7fd64eb21e047a839171b9190a45060016106e1565b5f610f9482604001516005611276565b60408051608080820183525f808352602080840182905283850191909152606092830183905283519182018452855182528086015160ff169082015260059281019290925280840151908201526106e1906112a9565b604051631974142760e21b81526004810182905230602482015273ea30c4b8b44078bbf8a6ef5b9f1ec1626c7848d9906365d0509c906044015f604051808303815f87803b15801561103a575f5ffd5b505af115801561104c573d5f5f3e3d5ffd5b5050505050565b604051631974142760e21b8152600481018390526001600160a01b038216602482015273ea30c4b8b44078bbf8a6ef5b9f1ec1626c7848d9906365d0509c906044015b5f604051808303815f87803b1580156110ad575f5ffd5b505af11580156110bf573d5f5f3e3d5ffd5b505050505050565b6040516346ce4e4960e11b8152600481018390526001600160a01b038216602482015273ea30c4b8b44078bbf8a6ef5b9f1ec1626c7848d990638d9c9c9290604401611096565b61111c848484846001611324565b61070b57604051635274afe760e01b81526001600160a01b038516600482015260240161054c565b6111518383836001611391565b61074457604051635274afe760e01b81526001600160a01b038416600482015260240161054c565b7f9b779b17422d0df92223018b32b4d1fa46e071723d6817e2486d003becc55f00546002036111bb57604051633ee5aeb560e01b815260040160405180910390fd5b565b604051630135f2c360e61b81525f9073ea30c4b8b44078bbf8a6ef5b9f1ec1626c7848d990634d7cb0c0906111fa90879087908790600401611784565b602060405180830381865afa158015611215573d5f5f3e3d5ffd5b505050506040513d601f19601f82011682018060405250810190610e5b91906117ab565b61124382826109ce565b6112725760405163e2517d3f60e01b81526001600160a01b03821660048201526024810183905260440161054c565b5050565b8060ff168260ff1614611272576040516367cf307160e01b815260ff80841660048301528216602482015260440161054c565b6040516313fce3b160e11b81525f9073ea30c4b8b44078bbf8a6ef5b9f1ec1626c7848d9906327f9c762906112e490859033906004016117c6565b6020604051808303815f875af1158015611300573d5f5f3e3d5ffd5b505050506040513d601f19601f820116820180604052508101906106e1919061171b565b6040516323b872dd60e01b5f8181526001600160a01b038781166004528616602452604485905291602083606481808c5af1925060015f51148316611380578383151615611374573d5f823e3d81fd5b5f883b113d1516831692505b604052505f60605295945050505050565b60405163a9059cbb60e01b5f8181526001600160a01b038616600452602485905291602083604481808b5af1925060015f511483166113e75783831516156113db573d5f823e3d81fd5b5f873b113d1516831692505b60405250949350505050565b5f5f83601f840112611403575f5ffd5b5081356001600160401b03811115611419575f5ffd5b6020830191508360208285010111156109c7575f5ffd5b8015158114610e89575f5ffd5b5f5f5f5f5f5f5f5f60c0898b031215611454575f5ffd5b883597506020890135965060408901356001600160401b0381168114611478575f5ffd5b955060608901356001600160401b03811115611492575f5ffd5b61149e8b828c016113f3565b90965094505060808901356114b281611430565b925060a08901356001600160401b038111156114cc575f5ffd5b6114d88b828c016113f3565b999c989b5096995094979396929594505050565b5f602082840312156114fc575f5ffd5b81356001600160e01b031981168114611513575f5ffd5b9392505050565b5f6020828403121561152a575f5ffd5b5035919050565b80356001600160a01b0381168114611547575f5ffd5b919050565b5f5f6040838503121561155d575f5ffd5b8235915061156d60208401611531565b90509250929050565b5f5f60408385031215611587575f5ffd5b8235915060208301356001600160401b038111156115a3575f5ffd5b8301608081860312156115b4575f5ffd5b809150509250929050565b5f602082840312156115cf575f5ffd5b61151382611531565b634e487b7160e01b5f52604160045260245ffd5b604051608081016001600160401b038111828210171561160e5761160e6115d8565b60405290565b604051601f8201601f191681016001600160401b038111828210171561163c5761163c6115d8565b604052919050565b803560ff81168114611547575f5ffd5b5f60808236031215611664575f5ffd5b61166c6115ec565b8235815261167c60208401611644565b602082015261168d60408401611644565b604082015260608301356001600160401b038111156116aa575f5ffd5b830136601f8201126116ba575f5ffd5b80356001600160401b038111156116d3576116d36115d8565b6116e6601f8201601f1916602001611614565b8181523660208385010111156116fa575f5ffd5b816020840160208301375f9181016020019190915260608301525092915050565b5f6020828403121561172b575f5ffd5b5051919050565b5f6001820161174f57634e487b7160e01b5f52601160045260245ffd5b5060010190565b5f81518084528060208401602086015e5f602082860101526020601f19601f83011685010191505092915050565b838152826020820152606060408201525f6117a26060830184611756565b95945050505050565b5f602082840312156117bb575f5ffd5b815161151381611430565b604081528251604082015260ff602084015116606082015260ff60408401511660808201525f6060840151608060a084015261180560c0840182611756565b91505060018060a01b0383166020830152939250505056fea264697066735822122069244f4cdb177f98f1dcb9478a3361d73218c7e71d9a8f50f88e9b99f8b0756f64736f6c634300081c0033",
  "linkReferences": {},
  "deployedLinkReferences": {}
}